:020000040800F2
:100000000050002021020008270200082B020008EF
:100010009D020008A1020008E9020008000000009B
:100020000000000000000000000000003103000894
:10003000350300080000000039030008B10800087B
:100040004D0300084D0300084D0300084D03000850
:100050004D0300084D0300084D0300084D03000840
:100060004D0300084D0300084D0300084D03000830
:100070004D0300084D0300084D0300084D03000820
:100080004D0300084D0300084D0300084D03000810
:100090004D0300084D0300084D0300084D03000800
:1000A0004D0300084D0300084D0300084D030008F0
:1000B0004D0300084D0300084D0300084D030008E0
:1000C0004D0300084D0300084D0300084D030008D0
:1000D0004D0300084D0300084D0300084D030008C0
:1000E0004D0300084D0300084D0300080000000008
:1000F0000000000000000000000000000000000000
:1001000000000000000000005FF808F100B583B0B7
:1001100000F0AAF9304B314A1360314A1360314B79
:10012000314A32498B4204D21168196004330432D7
:10013000F7E72A4B1A682E4B9A4200D0FEE7284B6D
:100140001A682C4B9A42F9D1234B2B4A13602B4A45
:1001500013602B4B02E000221A600433294A9342B9
:10016000F9D3254B1B6813B9244B1B6803B1FEE779
:1001700000F086F9694601A800F022F9224C234BD1
:10018000E41AA4100025AC4214DC214C214BE41AE3
:10019000A4100025AC4213DC0099019800F0C0FBCC
:1001A00005461D4C1D4BE41AA410002C0EDC2846FD
:1001B00000F0E2F8154B53F8253098470135E2E797
:1001C000144B53F8253098470135E3E7013C134BB6
:1001D00053F824309847E8E7BABADECA0000002096
:1001E0008400002000000020EC8F00088800002020
:1001F0007856341232547698880000202801002066
:10020000880000202C0100207803000878030008F3
:1002100078030008780300087803000878030008D2
:1002200008B5FFF773FF00BEFEE71EF0040F0CBF1A
:10023000EFF30880EFF309807146414A10472DE93A
:10024000F04182B004468846124B5E6B9F6B9D6AFC
:100250001B6B13F0020F03D00E4BDB6A002B0CDB81
:100260000D4800F0B5F8CDF800803B4632462946EF
:10027000204600F009F900BEFEE74BF6AB6100F046
:100280007DF90028ECD0034B4FF00042DA6202B057
:10029000BDE8F08100ED00E01813000800BEFEE7A5
:1002A0001EF0040F0CBFEFF30880EFF309807146D6
:1002B000244A10472DE9F04182B004468846084B95
:1002C0005E6B9F6B9D6A074800F082F8CDF8008056
:1002D0003B4632462946204600F0D6F800BEFEE7EF
:1002E00000ED00E0281300081EF0040F0CBFEFF330
:1002F0000880EFF309807146134A10472DE9F04159
:1003000082B004468846084B5E6B9F6B9D6A074827
:1003100000F05EF8CDF800803B4632462946204684
:1003200000F0B2F800BEFEE700ED00E03413000874
:1003300000BEFEE700BEFEE700BEFEE7704700001D
:100340003F020008B5020008FD02000800BEFEE7FB
:10035000EC8F00080000002088000020EC8F0008CF
:100360000000000000000000880000202C01002098
:08037000000000000000000085
:10037800FEE7000008B503460C4A12685AB10B4A5A
:100388001068033323F003030344094A934206D851
:10039800064A136008BD054A06491160EFE700F0F8
:1003A800F9FA0C2303604FF0FF30F3E78C000020CC
:1003B800004C00202C01002001230360014B0B603E
:1003C800704700BF040000200FB400B583B004AB31
:1003D80053F8042B01938021064800F00DFB0028F8
:1003E80003DD0146034800F037F803B05DF804EB7D
:1003F80004B07047940000202DE9F04385B004460E
:100408000F4643560BB10E461EE0042528462146EA
:10041800ABBE0446384605B0BDE8F08314F9011BAD
:1004280004AA1A4402F8101C0133AB42F6D304AAFA
:100438001344002203F8102C4FF00408E946404604
:100448004946ABBE8046761B002EE3D03546102EBB
:1004580028BF10250023E8E708B5FFF7CDFF08BD42
:1004680008B500F0FDF8024A024B9A6008BD00BFCB
:100478000000000800ED00E008B500F019F908BD1B
:10048800F8B504460D4617461E462748FFF79CFF59
:1004980021682648FFF798FF61682548FFF794FF11
:1004A800A1682448FFF790FFE1682348FFF78CFF15
:1004B80021692248FFF788FF61692148FFF784FF17
:1004C800A1692048FFF780FFE1691F48FFF77CFF1B
:1004D8001E48FFF779FF29461D48FFF775FF1D4C99
:1004E800E16A1D48FFF770FF216B1C48FFF76CFF9E
:1004F800E16B1B48FFF768FF15F0800F0AD115F470
:10050800004F0CD11748FFF75FFF06991648FFF711
:100518005BFFF8BD39461548FFF756FFEFE7314650
:100528001348FFF751FFEDE7FC1100080C12000813
:100538001C1200082C1200083C1200084C1200087B
:100548005C1200086C1200087C1200088C1200086B
:100558009812000800ED00E0A8120008B812000880
:10056800C8120008F812000800130008D812000882
:10057800E812000883691A888A4201D0002070476F
:100588000268033A012A03D80233836101207047C5
:100598000020704782B00023019300932C4A13680F
:1005A80043F4803313602A4B1B6803F40033009331
:1005B800019B01330193009B1BB9019BB3F5A06F0D
:1005C800F1D1234B1B6813F4003F06D0012300939D
:1005D800009B012B04D002B0704700230093F7E77B
:1005E8001C4B1A6842F010021A601A6822F00302C3
:1005F8001A601A6842F002021A60A3F580535A681A
:100608005A605A685A605A6842F480625A605A6856
:1006180022F47C125A605A6842F4E8125A601A6846
:1006280042F080721A600A4B1B6813F0007FFAD000
:10063800074B5A6822F003025A605A6842F00202D5
:100648005A60034B5B6803F00C03082BF9D1C2E72F
:10065800001002400020024008B5FFF79BFF08BDCC
:1006680008B5104B1A6842F001021A6059680E4A20
:100678000A405A601A6822F0847222F480321A60A2
:100688001A6822F480221A605A6822F4FE025A601C
:100698004FF41F029A60FFF7DFFF044B4FF0006230
:1006A8009A6008BD001002400000FFF800ED00E06D
:1006B8001F4B5B6803F00C03042B15D0082B17D0D5
:1006C8001BB11C4B1C4A1A6002E01A4B1A4A1A60EA
:1006D800174B5B68C3F30313184AD35CDAB21549A6
:1006E8000B68D3400B607047124B134A1A60EFE750
:1006F8000F4A53685268C3F38343023312F4803FAE
:100708000AD00B4A526812F4003F0BD00C4A02FB85
:1007180003F3084A1360DBE7094A02FB03F3054ABF
:100728001360D5E7044A02FB03F3024A1360CFE7DC
:10073800001002401C00002000127A000C0000206B
:1007480000093D0010B4012824D018B1022841D076
:1007580010BC7047072910D90F29F9D8A1F1080052
:10076800C0B280000F238340244C216821EA030390
:1007780002FA00F119432160EAE789000F2303FA1E
:1007880001F01F4C236823EA000302FA01F1194320
:100798002160DDE7072910D90F29D9D8A1F108036D
:1007A800DBB29B000F209840164C216821EA00001C
:1007B80002FA03F101432160CAE789000F2303FA13
:1007C80001F0114C236823EA000302FA01F11943EE
:1007D8002160BDE7A1F10D03DBB2022BB8D80839BF
:1007E800C9B289000F2303FA01F0084C236823EAF1
:1007F800000302FA01F119432160A9E70408014046
:1008080000080140040C0140000C014004100140A4
:10081800034B4FF480321A60043301221A60704788
:10082800001002401F291CD801280BD010B1022843
:1008380010D07047012303FA01F10A4A13680B43E9
:1008480013607047012303FA01F1074A13680B4349
:1008580013607047012303FA01F1044A13680B433C
:1008680013607047141002401C1002401810024018
:10087800014B00221A60704710E000E0074B5860F7
:100888001A6842F001021A60054A1160054A0121FE
:1008980011701A6842F002021A60704710E000E016
:1008A800140100201801002008B50A4B1B785BB919
:1008B800094B1A6822F002021A601A6842F0010213
:1008C8001A6000225A609A60044B1B689847024BD2
:1008D8001B6808BD1801002010E000E0140100208A
:1008E8000A4A13889BB20A49C95C0A4B19601388E3
:1008F80001339BB2138013889BB247F6724293422E
:1009080000D07047014B00221A80FAE71A01002034
:10091800441300080C08014008B5FFF779FF0221CD
:100928000846FFF77FFF022200210846FFF70AFF6B
:10093800022201210020FFF705FF022211460020B4
:10094800FFF700FF022203210020FFF7FBFE02222F
:1009580004210020FFF7F6FE022205210020FFF700
:10096800F1FE022206210020FFF7ECFE02220721F9
:100978000020FFF7E7FE022208210020FFF7E2FE31
:10098800FFF776FF02497D20FFF778FFFEE700BFFB
:10099800E9080008014B1868704700BF20000020D4
:1009A80030B5141E05469BB0184605DA8B234FF068
:1009B800FF302B601BB030BD4FF40273ADF80C3024
:1009C8000CBF234604F1FF33029305934FF6FF73E0
:1009D80000910491ADF80E3002461E9B69462846E8
:1009E80000F072F8431CBCBF8B232B60002CE1D0B5
:1009F8000022009B1A70DDE707B5009313460A46EC
:100A0800014603480068FFF7CBFF03B05DF804FB1D
:100A1800200000202DE9F0478E6882469E420C4651
:100A28009046994637D88A8912F4906F31D00223BC
:100A3800256809696F1A656905EB450595FBF3F5A6
:100A480009F101033B449D4238BF1D46530530D58B
:100A5800294600F035FB064650B90C234FF0FF300D
:100A6800CAF80030A38943F04003A381BDE8F087AA
:100A78003A46216900F0B4FAA38923F4906343F05D
:100A88008003A38126613E4426604E466561ED1BC6
:100A9800A5604E4500D94E4632464146206800F0D2
:100AA800AAFAA36800209B1BA36023681E44266043
:100AB800DCE72A4600F05EFB06460028E2D1216901
:100AC800504600F0B1FAC8E72DE9F04F9DB0039306
:100AD8008B8980461D060C4616460FD50B696BB9E7
:100AE800402100F0EDFA2060206128B90C23C8F8F5
:100AF80000304FF0FF30C7E04023636100230993C3
:100B080020238DF8293030234FF0010B8DF82A303F
:100B180037463D4615F8013B0BB1252B3ED1B7EBC7
:100B2800060A0BD05346324621464046FFF772FF6D
:100B3800013000F0A480099B534409933B78002BB3
:100B480000F09D8000234FF0FF32CDE90523049388
:100B580007938DF853301A932F46052217F8011B77
:100B68004F4800F02FFA049BD0B9D90644BF202281
:100B78008DF853201A0744BF2B228DF853202A786A
:100B88002A2A15D02F4600200A25079A394611F837
:100B9800013B303B092B4DD9B8B10FE02F46B8E7E0
:100BA8003F4A3D46801A0BFA00F018430490D3E7F9
:100BB800039A111D12680391002A01DB079204E0D1
:100BC800524243F00203079204933B782E2B0CD138
:100BD8007B782A2B33D1039B02371A1D1B6803929B
:100BE800002BB8BF4FF0FF3305932E4D0322397801
:100BF800284600F0E7F938B14023401B03FA00F01B
:100C0800049B0137034304933978062226487E1C47
:100C18008DF8281000F0D6F9002838D0234B13BBE4
:100C2800039B073323F0070308330393099B4B44C3
:100C380009936DE705FB023201200F46A6E7002362
:100C48000A25194601370593384610F8012B303A22
:100C5800092A03D9002BC8D00591C6E705FB012155
:100C680001230746F0E703AB00932246104B04A983
:100C78004046AFF30080B0F1FF3F8146D6D1A3894B
:100C88005B063FF536AF09981DB0BDE8F08F03ABA2
:100C980000932246064B04A9404600F081F8EAE793
:100CA800B68F0008BC8F0008C08F00080000000045
:100CB8001D0A00082DE9F04791461F468A680B690E
:100CC80006469342B8BF1346C9F8003091F843204E
:100CD8000C46DDF8208012B10133C9F800302368D2
:100CE800990642BFD9F800300233C9F800302568A8
:100CF80015F0060507D104F1190AE368D9F80020B0
:100D08009B1AAB4229DC94F843302268003318BFA1
:100D1800012392062ED404F1430239463046C047D7
:100D2800013021D02368E56803F00603042B18BFBF
:100D38000025D9F800204FF0000908BFAD1AA368B4
:100D4800226908BF25EAE5759342C4BF9B1AED18CE
:100D58001A344D451AD1002008E00123524639467D
:100D68003046C047013003D14FF0FF30BDE8F0876F
:100D78000135C2E73020E11881F843005A1C94F885
:100D880045102244023382F84310C4E70123224667
:100D980039463046C0470130E6D009F10109D8E7A5
:100DA8002DE9F04301F1430C0C46097E85B06E290C
:100DB8001746064698460C9A00F0B38022D8632955
:100DC80036D00AD8002900F0B980582900F083806D
:100DD80004F1420584F8421032E0642901D06929FF
:100DE800F6D120681368050603F104012AD51B68AB
:100DF8001160002B03DA2D225B4284F843206F48F0
:100E08000A2239E0732900F09D8008D86F2920D084
:100E18007029DDD1236843F02003236003E075299E
:100E280017D07829D4D17823654884F8453055E01F
:100E3800136804F14205191D1B68116084F84230DB
:100E480001238CE01B6810F0400F116018BF1BB223
:100E5800CFE713682568181D1060280601D51B68A0
:100E680002E06806FBD51B886F2914BF0A220822F6
:100E78005248002184F843106568002DA560C0F22F
:100E88009580216821F004012160002B3DD1002DBF
:100E980040F08E806546082A0BD12368DB0708D509
:100EA800236962689A42DEBF302305F8013C05F1E8
:100EB800FF35ACEB05032361CDF800803B4603AA60
:100EC80021463046FFF7F6FE01304DD14FF0FF3096
:100ED80005B0BDE8F083394884F8451013682168E7
:100EE8001D1D1B6815600A060BD5CA0744BF41F0D3
:100EF800200121601BB9226822F020022260102202
:100F0800B7E74D0648BF9BB2EFE76546B3FBF2F182
:100F180002FB1133C35C05F8013D0B460029F5D1EE
:100F2800B9E713682568181D6169106028061B68F1
:100F380001D5196002E06A06FBD5198000236546D1
:100F48002361B9E71368191D11601D6862680021E3
:100F5800284600F037F808B1401B606063682361D9
:100F6800002384F84330A7E723692A4639463046E8
:100F7800C0470130AAD023689B0713D4E068039BBD
:100F88009842B8BF1846A3E701234A463946304677
:100F9800C04701309AD00135E368039A9B1AAB42E7
:100FA800F2DCEBE7002504F11909F5E7002BACD1D9
:100FB800037804F1420584F842306CE7C78F0008D3
:100FC800D88F000810B5C9B202449042034601D137
:100FD800002303E01C7801308C42F6D1184610BD7E
:100FE80010B5431E0A44914200D110BD11F8014BBF
:100FF80003F8014FF7E7884210B501EB020307D861
:10100800421E99420AD011F8014B02F8014FF8E745
:101018008342F5D98118D21AD34200D110BD13F8F2
:10102800014D01F8014DF7E738B50546002943D0D1
:1010380051F8043C0C1F002BB8BFE41800F0D0F89E
:101048001E4A1368104633B9636014602846BDE829
:10105800384000F0C6B8A3420BD921686218934201
:1010680001BF1A685B685218226063600460EDE78C
:1010780013465A680AB1A242FAD919685818A04208
:101088000BD120680144581882421960DED11068DB
:101098005268014419605A60D8E702D90C232B60C2
:1010A800D4E7206821188A4201BF116852680918DC
:1010B800216062605C60C9E738BD00BF1C01002088
:1010C80070B5CD1C25F0030508350C2D38BF0C254F
:1010D800002D064601DBA94203D90C23336000200A
:1010E80070BD00F07DF8214A1468214691B9204C62
:1010F80023681BB9304600F063F820602946304663
:1011080000F05EF8431C24D10C233046336000F015
:1011180068F8E4E70B685B1B18D40B2B0FD90B603E
:10112800CC18CD50304600F05CF804F10B00231DBC
:1011380020F00700C31AD3D05A42E250D0E74B68D8
:101148008C4216BF636013600C46EBE70C46496897
:10115800CCE7C41C24F00304A04205D0211A304671
:1011680000F02EF80130CFD02560DBE71C0100200D
:1011780020010020F8B5074614460E4621B9BDE8FF
:10118800F8401146FFF79CBF22B9FFF74DFF2546EF
:101198002846F8BD00F026F8A0420FD2214638466E
:1011A800FFF78EFF05460028F2D031462246FFF7AA
:1011B80017FF31463846FFF737FFE9E73546E7E7D7
:1011C80038B50023054C054608462360FFF7D2F8DA
:1011D800431C02D1236803B12B6038BD24010020D1
:1011E8007047704751F8043C181F002BBCBF0B58C0
:1011F800C0187047537461636B206672616D653AFD
:101208000A000000205230203D2020253038580A9E
:1012180000000000205231203D2020253038580A97
:1012280000000000205232203D2020253038580A86
:1012380000000000205233203D2020253038580A75
:101248000000000020523132203D20253038580A55
:1012580000000000204C52203D2020253038580A3C
:1012680000000000205043203D2020253038580A37
:101278000000000020505352203D20253038580AE5
:10128800000000004653522F4641523A0A0000001F
:101298002043465352203D2020253038580A00006C
:1012A8002048465352203D2020253038580A000057
:1012B8002044465352203D2020253038580A00004B
:1012C8002041465352203D2020253038580A00003E
:1012D800204D4D464152203D20253038580A000007
:1012E8002042464152203D2020253038580A00002F
:1012F8004D6973630A000000204C522F4558435F24
:1013080052455455524E3D20253038580A000000A9
:101318005B486172644661756C745D0A0000000088
:101328005B4275734661756C745D0A005B55736149
:1013380067654661756C745D0A000000817C797D83
:1013480075758289827D807D787C7D7978818B8CAA
:1013580080797C7D80878A847F80817D7B7F7F7692
:1013680078868C84767279838B8E82797C86857B6D
:101378007A8189857C80857A727F857E7C83847F6B
:101388007C7D7B7A8084858886817C797B81848357
:10139800858278757D7E7B7A7E84807C807F777974
:1013A80083878786807A7A7B7F83818285837C7D29
:1013B80084837D7D8587847F7A74757D848280802F
:1013C8007D7F807E7E8081808285827C7A797E881E
:1013D800887F7B808181807C7C808485837B7A7D0B
:1013E8007D7D808281807E7A7B7D7E7F7D80858009
:1013F800777B807F7A808887827C7D7F7F808180F1
:10140800818081827F7B787B8286837D7E81807AE2
:101418007C85857E7C82837A787F84858382817FC0
:101428007C7B7F85827E7F82827F7F7E7D7E7F83BD
:1014380085827D7B7A7D8081817E7C7E807E7B7DBE
:10144800808183827E7D7E7E7F8180808282818092
:101458007E7D7F808082847F7A787C82847F7C8294
:1014680084807D7F7F7D7F82818081807E7E7F8278
:1014780085838181817E7D8084817E7E7F807F7E61
:101488007D7C7F82827F7C7A7A7F817D7E82848167
:101498007C7D7C7D828483827D7A7F83807F81814D
:1014A800807F7C7D807F7C7A8086827B7B81807D4B
:1014B8007F83827F7E7F82827E7D8185837F7D7E22
:1014C8008182807E817F7D7F827F7A7B8184807C20
:1014D80080817D7C7D7C7E818080807F7D7E818215
:1014E8007D7C82847F7A7C808180817E7B7E808007
:1014F8008281807F7F8081807B7C80807E7F8282EA
:101508007C7A7E7F7E81837F7D7F827F7E7F7F83E3
:1015180086847F7C7D8288968A76768575516786F3
:10152800887C7A84A498747D7E6871B0B27F526E8C
:10153800B0775295B4895F77725977ADA85A5798A2
:10154800B981505A8B998B9D9E7D6582795D7AAD64
:10155800B27D5E767A7E7476876D7FAB935C539AA4
:10156800B064599BB9814E5E949687806E71A0B322
:101578007A51668CA592616095AE7C4C558D969695
:101588008F7C6F878F695C7FB38E56629A99715A88
:10159800687B8B979E805461858F707096B28C5D46
:1015A8005071948D8797957A7B776A6B7B8D8F8A3C
:1015B8008A7E605676878B9595745E76998D5D5F89
:1015C80089B0A0755D5E6B83847F929D887076710B
:1015D80075858680848B8E6E566E928C8391766923
:1015E8008F8D6B6D809597846E777C7371727B8B12
:1015F800989588786769848A7786A487626E8171EE
:1016080075918D7C8B8E7463789B8B6579A68A63C4
:10161800788E756581A8A17C7686715773959684B6
:101628007B787C757684817487A2976E5475A08BBD
:1016380073948C68789C7C576C9BAC7C6995945FA0
:101648005C7E817E8F908473707C7F777C8D9D9586
:101658006F6A89896C7B9B9A7D687E896E78A18E7A
:101668006582A18A625E7E8F777196987C7B7C67A3
:101678006E8B9C987F6D8493766175969780838B2B
:10168800675C8BA17E68879F815E779A785E8AA364
:101698008B78817E6C69829C896F83907B6F737F66
:1016A80087828391896B6D87877B869D8E646A9814
:1016B8009467648C9B8276857E67779583677CA127
:1016C8009A755D718C867E878B7D798380736F8B2D
:1016D800A1866A7F8C72688496836F7D9480677B0D
:1016E8008A7370939F8164738C7A677C958E7D7DF5
:1016F800807E767C8A847A828D866D698293877AE9
:10170800817F798687736A7E9692776F82826E73FD
:10171800818484878D84706E858D7D7C8B907E6AB4
:1017280073888A7C7C87877B75777A7D898B7976C5
:101738008B8F786B7480858184867E7C847C6B77C4
:10174800929582747783847573888E837D77757A92
:10175800848A7D76848A817878787C7C7F87858185
:10176800857C71798484828184867F78767B848B7A
:10177800867878817E7C7E828283837A787C7F7E7D
:101788007A7B81888D80707181897F777F8A898053
:101798007C7977818B847D807E7D7D7B8084868348
:1017A8007B757C837A79828081837D7B8083787462
:1017B8008491877679827E7C807F7C848D8777721E
:1017C8008089807C83827A757981827F8383787D22
:1017D800888579727C8A8A80848678768389847BF6
:1017E8007B86857B7D827A78868B8176747F837C05
:1017F8007E84807D80817D797C85857E7F83817FE5
:101808007D7B7E7F7F8787797884817B7C7F8480DE
:101818007A838476768487837D7C7F7C7781877DD5
:10182800797E83807C7E817D798287817D7D807EC3
:101838007C7C83847A7F8880787D808080818481A5
:10184800747684847F7F80827E7B82877D7882869F
:10185800827F80807B7982897F797F81817D7C828C
:1018680081797E84817B7E807D7E808782767B8580
:101878007F79848B80777E877F747E877D7780876A
:101888008279798384777D8980777D888475758569
:101898008B807D807E7A7E86857D7C8384797C883A
:1018A80081747A8A897C7B84807A80867D77828835
:1018B80082787982857C7B84867E787C828281832B
:1018C800807B7C84837E7B7F84827D7F807D7E801D
:1018D8007E7D8084827B797F827E7F81817D7C7C16
:1018E80081827F8084837D7C80817E7D82867E76F6
:1018F8007C86847D7B7F81818381797C84827D7DE8
:101908008180807D7F84817F82817E7F83817B7CD3
:10191800838881787B83837C7B817F7E81807E7DC9
:1019280081837C797F827F7D81807E80827F7C7FBE
:1019380085837B787E877F7981867F787B83817DAD
:101948007E80807E80807C7C7D80817F82827E7E9E
:1019580081827F7F83807C7F84817B7B82857F7F80
:101968007F7F7E7E81817F7D7F7F7C7D82827D7B84
:1019780082857D7B8081807E807E7D8081807E8067
:1019880082817F7E7F817F7E7E7F807F7F7F7C7D5F
:1019980081827E7B7F81807E7D8083807E81827F45
:1019A8007E82808082837D797E83827F7D80828033
:1019B8008081807F7E7F817F7E80817D7F84837E22
:1019C8007C7D808180817F7C7E8183817E7F817F19
:1019D8007D7F81807D7F81807E7C7E80808181800B
:1019E8007F7E7F807D7F85827B7A83857D7B8184F6
:1019F8007E7E847F797D8484807F83817B7D8383E1
:101A08007D7B81837E7C7F7F7D7F85827B7C8182DD
:101A18007F7C7F81807F7F7E7C7F837F7C818481C8
:101A28007C7F82807D7F827F7E8082807D7F7F7EBB
:101A38007D7F8080807D7E84857E7B7E84827D7DA7
:101A480080827E7F82817F7D7D7E7E8184827B7A9B
:101A580081827F7C7D808081837F7C7F817F7D7E8A
:101A680083827C7B80827E7E81807F81807D797E7F
:101A780086837A7C82807A7B80827F7D81817D7F6C
:101A8800827F7A7D85857D7B80807D7F83837F8053
:101A9800817E7B8085807A8086817B7C7F807F7F4A
:101AA80082817E7F80807D7E82817D7E82817C7C3A
:101AB8008082817F81807D7E817F7C7F807F7F7F28
:101AC8007F7E7B7D8284817E7E7E7F7E80807D7B23
:101AD8008085827C7B7E818282827F7E7F7F7E7E04
:101AE8008081817E7E81817E7D8081818282807FEE
:101AF8007D7D7F828080817F7E82847F7B7D8284E2
:101B0800807C7D7E7F82827D7E81807E807F7E7EDE
:101B18007F8082817C7D7F7E7F80807F7F817F7ECA
:101B28007D7E81817D7E84837B7C82827E7E8281B4
:101B38007C7C83837C7B81848180817E7B7F8283A4
:101B4800808082827D7B82837D7C80827F7F817E94
:101B58007B7B83867E7C82827B7B82827F7E7F8189
:101B6800817F7F7E7C7F82807E7E7E7D7E7E808080
:101B78007F807F7E7F7F7D7C7E8083807D7D7F8070
:101B8800807F7E7E8081807E7A7C808382807D7D5E
:101B980080817E7E84847F7E82807B7B80827F7B47
:101BA8008185807D7F7F7D7D81817F7D7F817E7F37
:101BB8007F808282827D7B7D7F828180807F7D7C29
:101BC8007E807F7F81817E7D81817C7B7E82817F1B
:101BD80080807E7E7F81807E81827F7E7F7E7F7F08
:101BE8008182817D7C80817D7D81818080807F7CF8
:101BF8007D82827E7E83837E7C7D7F8080808180E3
:101C08007E7F7F7E7F81818181807E7C7D7F8181D7
:101C18008080817F7B7D82807D7F7F7F7F7E7F7ECE
:101C28007F81807F80807F7C7D8181808082807FB2
:101C38007E7D7F808181827E7D7E807F7E7F8082A7
:101C4800807D7E807F7F817F7F8081807E7E808196
:101C5800807F80807D7C7D808080807E7F7F7F808C
:101C6800817F7D8082817E7D7F807F7F8080808074
:101C78007F7E7E80807F7F7F8082817C7C7F828266
:101C88007E8083817D7D80817F7E80807E7F807E57
:101C98007D8084837E7B7E817F7D7D808280817F45
:101CA8007B7E82807D8184807C7B80817F81837E36
:101CB800797D82807C7C8083807C7E7F7D7C808334
:101CC80081817E7A7C8181817F7D7F82827F7F7C1A
:101CD8007C8385807E7F827F7C7E82857E7B8083FD
:101CE800817D7C8081817F7E808080807F7E7D7FFA
:101CF80081817E7E807F7E80817F81807D7B7E81E9
:101D08007F7D8183817C7B7F817E7D8183817C7CDB
:101D18007E7C7B8084827E7D80817C7D81807F81CA
:101D2800837E7B7D807F818484807B7C82817F80B1
:101D38008181817F7D7B7C8284827F7F81817C7CA5
:101D48008283817F80807F7E7F7E7D8186847D7C8B
:101D58007F7F7C7E83827E7D7F807E7D7F807E808C
:101D680082827D7C7F81807E7F81807F807F7E7E76
:101D780080827F7F82827E7A7C7F808284807C7E64
:101D880081817E7F8284827E7F7D7C7E7F8182824C
:101D9800807F7D7E817E7D8083817E7B7C7E807F4F
:101DA8008182817F7D7B7B80828281817F7C7C7E3A
:101DB8007E7E8081827F7D7C7D7D7F81807E7F7F2E
:101DC8007E7E7C7C7E8081827F7D7E7D7E8182801E
:101DD8007F7F7E7D7E80807F8082817F7D7D818107
:101DE8007E808282807E7E7F7D7E80807F80827EF4
:101DF8007A7D83817E8083817E7E7D7B7D84857EE6
:101E08007D81827D7B8084817E80817F7D7E7E7DD9
:101E18008085847C7B81817D7D82838080817E79C1
:101E28007C85847D7C83847D7A7F817E7F83847FAB
:101E38007D7F807F7F82847F7D7F81807E7E7F81A2
:101E480084827D7B7F82807D7E8183837E7A7C8293
:101E5800827F8080807F807F7D7F83827D7D81837C
:101E6800807B7D80818080807E7C7D7E7F81838178
:101E78007F7E80817F7C7E83837F7E7E7D7E808265
:101E88007E7D8183807C7D807E7F82817F7E7E8057
:101E98007F7D7F8283807E7D7D7E7D7F83827F7E46
:101EA8007F7F7D7C7F828180807E7D7F81807F8037
:101EB800817F7E7F807F7D7F81807F81807C7B7F2B
:101EC80082817F7E82817D7C7F817F8082807D7D13
:101ED800807F7D81827E7D82827C7B807F7E808206
:101EE800817E7E7F7E7D7F82827F7E7E7E7D7E80FC
:101EF800807F80807E7D7F807F7F80817F7E7E80E7
:101F0800807D7E82817E7F827E7A7D84827F7F81D2
:101F18007F7C7D7F7F7F81817F7E80807E7E8082C7
:101F2800827F7F7F7E7F8081807F81817F7D7E81B0
:101F3800807D7E82817E7D7F7E7E8082817D7D80A8
:101F4800807E7D7F80807F7E7F7E7F818080808095
:101F5800807D7D8082807D7D8184817C7E807F7F85
:101F6800817F7E80807F7D7F81817F7E80817F7E73
:101F78007F80808081807C7E818180808182807C5E
:101F88007E82807D7E81818081807C7C8082807F52
:101F980081817F7E7F7F7F8181807E7E7F807F7E43
:101FA8007F82807D7D7E7E8081807E7E7F81807C39
:101FB8007C80807E8081817E7C7E80807F807F8027
:101FC80081807D7D7F82817D7F82817E7E80818010
:101FD8007F81807D7F82817C7C8083807E7F7F7D06
:101FE8007E81827F7E7F807F7F7F7F8082817E7DF2
:101FF8007E7F807F7E81817E7F7F7E7D7F807F7DEB
:102008007E81817D7C807F7E8182807D7D7F8080D6
:102018007F7E7F807F7D7D7F8080807F7F7F7F7FC9
:102028007F7F807F7F807F7E7E8081807E7E8081B3
:102038007F7E7F807D7E81817F7D7F817F7D7F81A7
:10204800817F7F807F7E7F817F7E7E80817F7F8092
:102058007D7C80827E7C81837D7A7F83817E7F8088
:102068007E7E80807E7D81837E7B7F827E7C808376
:10207800817E7F827E7B8083807D80827F7C7E8262
:10208800817C7E83827E7E7F7E7F82827E7D7F8151
:102098007F7D8082817F7F81807F7F7F807F7F823D
:1020A800827D7B8082807D7F81807F80807E7D8035
:1020B800827E7C8082807D7D81807D8083817D7E23
:1020C800817F7E7F81807E81827E7A7D83817C7E16
:1020D80081817F7E7F7D7C8184817C7D817F7D7F06
:1020E80082807D7E81807D7E81827F7E80817F7DF2
:1020F8007E807F7F82817E7E807F7D7D80817E7EE7
:1021080081807D7E80817F7E80817E7D81827F7DD2
:102118007F82807E80827E7B7E82817F80807D7CC4
:102128007F83807D7F81807D7F7F7D7E81827E7CB5
:1021380080827F7C7D80807F82827E7C7F817F7FA2
:1021480082817E7D7F807E7E81807E7F81817E7C94
:1021580080817E7E81827D7C7F808080807F7D7F84
:1021680081807E7D7F82827F7D7F7F7E7F807F8072
:1021780081807E7D80817F7E7F82827F7D7E81805F
:102188007E7F807F7F7F7F7F7F7F807F7E7F817F55
:102198007C7D8082807F807F7C7E81807E7F818045
:1021A8007D7F817E7D7F82808080807D7C80848031
:1021B8007B7F82827E7C7F81818082817B7D82821F
:1021C8007C7C84827C7B80827E7E80818080827D14
:1021D8007B7F82817E7E807E7D7D82837F7E7F7F06
:1021E8007F7F827D7D7E80817E7E7F827C8E8D7FDB
:1021F80076755D73968883718C957D737D81825A1F
:1022080076A37C8D8B78665988846585947282A3C1
:1022180090746297A0655F8F83667B848399AF8E85
:1022280070635A759F807EAAA0776A6A576B948BF1
:102238007894AA8A676E656C94A28D7E6B5D748CA7
:10224800A59B8B635B807D907E647DA9AA83767F46
:10225800654F70908573A4AF876C5D6394B28459A1
:1022680060859C9B996E446A99A0A78E5254779674
:10227800B1A5776B635B7886847A86AAA179625761
:1022880066878E95AA8C5757A49E55598EA8A28109
:10229800575279969AA07F74728B774C5F90989575
:1022A800A28971636B647683909B80818461547B7F
:1022B800979B9A6A4D76AC8B7B97686298A66C540C
:1022C800658A8B769CB2845F827F516084828BAAF8
:1022D8009D6D646267848C8A9D94575FA6AA70621C
:1022E80068729D9C6253778C8F9B9A827874766211
:1022F800597D918C9CA480725F5D7D8BA196687FCF
:10230800A0845D5488B79451508494898A6C72ACC7
:10231800A5786A68607B8E7E8CA696746D615F7FF7
:10232800898482A3AE8359556F9FAC8361627E8294
:10233800889A986F6F987C68897253729AB09A8756
:102348006F5683875E6D898D9EA7876754618286E5
:102358007F9A8D6F707BA3976D7D8C6D719E905C5D
:102368005F90AA9C8572666871757D868CA09C7E3C
:102378006F696B7379839CA5837B85685F8EA18861
:10238800716C7A7A6984AD97625FA3A96C5065898C
:1023980095A09C7E67788F7853678590A2987E7009
:1023A8006A6D8295897E88775D6FABA4615D93A61F
:1023B80077626F7B80889E9D897B7C7C67607A874B
:1023C800868FA09D8164556A8CA29A7C62749A91CA
:1023D8006F6A88A184606B8489798197867A958FE2
:1023E80063506C8E95887C90A28F6E60636D819629
:1023F80093908E736569849F916B607C8B787E9ACD
:1024080080688DA3845A5D818F7A7499A086776DD0
:10241800778670617692A49B846354799891816ED3
:102428006D7D82898A7B7C9192685B878D696390D8
:10243800AC927C78746E6E797E7C8C999285776884
:1024480066787F81949572657C8A8E8981756B7EAA
:102458008E735F7DA49D7D78877863697982899979
:10246800977A6D828D78616B7E95A38E6B60798883
:102478008D91806F6F7474809C946F759795715F60
:1024880069778495A18B71778A886D647488898F40
:1024980095897A71677494988263668088928D783A
:1024A8007C8A8573797C6C7091A0897D898566604A
:1024B800798E807B8B8B8F8B766D6E6E85948D83FA
:1024C8007069798E958E807471767F87827E7D8320
:1024D800979B7B545D848E83858B878083897C66FC
:1024E8006A7C858E938B77676E8797917C66657E0D
:1024F80090887D7B848A857D727476717B99A284AD
:10250800717D8174777F74738899917E72707681FA
:102518008985807F786F7990978B797078858372B9
:10252800717F8B948E857D6C667C887E788390899C
:102538007C7E827369778E90877D6E6D7F8D8D88A6
:102548007B6D6F798088827D81858F86736A6E76D0
:102558007D9099846B758F8D7569737E89918C7D5B
:102568006D6F818887877C6E727F848B8C7D798183
:1025780082837F716C799295837A81817473818566
:102588007C77818A86807E79727A8A8B7E7577805D
:1025980083858A867A7A79787F827F7B7D858C8F1E
:1025A8007B687287888080837C7F8E8E7A69718051
:1025B8008A88817D7876808C8E8173707984868410
:1025C8007C7B818687807774797D838B87797E870A
:1025D8008178797F7B757E8F8D797379848B847B05
:1025E8007B797981858684807E7C7A7B807F7A7D01
:1025F80083898B84787177848A7E727D8B868086C6
:102608008678707B8C8B7C777A7E8688817D7675E0
:10261800808783797B828484847F79797F787C8BB7
:10262800897B78828C88766D79858384877C727BB8
:1026380089887F797B7C7B84858082807F7F807F8F
:102648007A787D8389857C7B80857F7B7E7A7A8397
:102658008885817F7E7A7B81878379767B848A8669
:102668007F777980847F7B7B7D7F8587827F7B787E
:102678007B8186807A7E8081888475747F8683805A
:102688007D7B7F7E8186847C78788085817D7C7D5A
:102698008389837B7C7B7E8181807F7D7E84857F2F
:1026A800797C7D7A828B857779818483807D7B793B
:1026B8007B8387837D7C808385827A777D83838112
:1026C800827E7B7E83837E79798487828182817C06
:1026D8007A81857C797B7F8485858179797C8589F8
:1026E8007D777C80848780797C81807E80817D7AFB
:1026F8007F89887E767A7F7D8084807A7A848982D1
:102708007B797A7E8382807E7C7C808685817976DF
:102718007E8485827C7A7D8386827C7777808683B7
:102728007F7D81827F7F7F7D7A7A7F8584817D79B5
:102738007D8383807B797D8286827B7C808080819B
:102748007F79788082858780797980827E7B7C7E9C
:102758008386847F7D7B7A8186817E807F7B81886A
:10276800847D787B8282827F7A7C828586827C796E
:102778007A808082827B7E86847D7F7D797C848856
:10278800837E7B7D8183807F7D7A7E8183807D7C53
:102798007F8482817E797880828284817D7A7F823B
:1027A800807B7A7D828584817A7A7D7F81817F7B37
:1027B8007C808182827D7A7F84817B7C797B85871E
:1027C800827E7C7B7D817F7B80807F85847E7A7B17
:1027D8007D8184827E7C7B808183847E797E817FFB
:1027E8007D7F817B7F88837D7D7B798085817E7EEF
:1027F8007E8181817D7B7D7C808482807D7B8080E1
:1028080082837B787C8183807E7E80817F7F7F7CD2
:102818007980858181827D797E817F7C7D7E8285BC
:1028280082817F7B7D84847E7D7C7C7F8484807EA6
:102838007F7C7E82807C7E7F8186847E7A7C80829B
:102848007F7E7F8084827F7E7D7E7F7F8081807E89
:102858007C7D84857F7A7B7D7E7F818080807E8081
:1028680083827D7B7C7D8285827D7B7D82827F7B6E
:102878007D7F81837F7D80827F7E80817C797C8261
:1028880086827E7D7E7C7F827E7B7E83817F7F8049
:102898007F7E7E7D7E7C7F81818383807C7A7E8241
:1028A800817F7C80817E82847D7A7D7D7F8081802E
:1028B8007F7E7F81827F7A7B7D7F82807D7F808320
:1028C800827D7A7C808082817D7F82827F7B7D8011
:1028D8007D7D7E8183817E7C7E7E80817D7C7E7F06
:1028E8008080817F7D7F80807D7C7E818182847FE6
:1028F8007B7D7F81817E7A7D86847E807E7D7F80E0
:102908008080807E7C7E818181807C7B80837F7CCF
:102918007D818480807F7B7D7F7F7F818081807EB9
:1029280080827E7A7D81837F7E7E7D7E807F7D82B0
:10293800817D7C7E7F8081808081807D7D7C7D81A2
:1029480085847F7B7E82817E7D817F7E8181807E82
:102958007D7E7E7F82817E7D7E7F8183817D7F8279
:10296800817B7B7E81848382817E7D7B7E84827C69
:102978007D808283807D7A7B7F84867E797E807F5E
:102988007F817F7F7F7E7E7E7E7F7F7F8285807A4C
:10299800797A80848280807E7D807F7A7C827F7E47
:1029A80081847F7C7B7D8182807F807E7D7D7C7F32
:1029B800838281817D797D8080808385817C7A7C1A
:1029C8008083807B7D8285827B7A7D7F7F83858003
:1029D8007A797F818283807F7F7E81817E797B8304
:1029E80087847E797B7E7D80817F81817E7D8180E9
:1029F8007B7B7F8383807E7B7A808382807D8081DE
:102A08007E7A7C80848381807E7B787B81838484CA
:102A1800807B7D81817F7D7F8181818280797980C2
:102A2800828385817A787C8384807E807F7F7F7CA7
:102A38007B7C828585817C7D7F7C7D80827F7D8299
:102A4800817C7C7F7D7D8284827D7C7F807E7D8190
:102A580083827E7E7D7D7D7D82848382807A797D7E
:102A68008284817F7F7E7F7E7F817C7E838280835C
:102A7800827877818685807F7E7A7D8081807F8459
:102A880086807B797A7E81838382807A7C817F7F4E
:102A98007F80808183807B797E828182827C7A7D3F
:102AA8007F7E7F8287837A7A7D7E7C7D8183838027
:102AB8007E7C797C80818282817F7F7C7B7F7F7E28
:102AC8008082807F7E7C7A7E8684807C7C7E7C7B14
:102AD8007D818383827F7D7A797E838283827F7DF5
:102AE8007C80807C7D7F828281807B787E85847FEC
:102AF80082817A797E817F8083837F7C7B7D7E7EE5
:102B08008286837D7D7E7C7C7F818182817F7E7DC4
:102B18007E80808181827F7C7E7D7F7F7F84827CB6
:102B28007E7F7C7B7F848280807E7F7E7C7D8082AE
:102B3800827E7D8081817F7E7D8083817E7D7D7E9A
:102B48007E81838181817D7A7C84837F7E83858079
:102B58007A797E8181818181807E7D7F7F7F817F7F
:102B68007E81817E7A7B808482817E7B7B81827D6F
:102B78007D8387827A797E7C7B8286817E7F807E58
:102B88007C7E7E80807E7D7F7E7C7F807E7E808254
:102B98007F7C7D7E7F8386837E7D80817C7D848330
:102BA8007F828480797A8082807F81807E7E808126
:102BB8007D7D80807F817F7D7C7F8282817E7D7E1E
:102BC8007D7D7F7E7E8184847E797B807E7E82820D
:102BD8007E7C7E807E7C7D7F81817E7E7D7F7E7F08
:102BE800818081827E797C7E808283837E7E7D7DEA
:102BF8007D7A7F85837E7D7E7D7C7E81827F7E80DF
:102C08007F7F7E7F807E7E82837E7A7C80818182C8
:102C1800827F7F7F7D7C7E8081828082807A7A7FBE
:102C2800817F8182807C7C7F807F7D7F817F7E7FAA
:102C38007F7C7D7F828181817E7C7B7E808080829B
:102C4800817E7D7D7D7C7F8383807E7B7E807D7E93
:102C580081807F80807E7E7D7F818182827F7C7C77
:102C68007E7F8081838180807E7B7B80848380805F
:102C7800807E7A7C8283817E7F807E7C7F817F805C
:102C88008281807F7D7D7C7F8485827F7D7C7D7E47
:102C98008080808285817A7C807D7D82847F7B7B39
:102CA8008083807D7E8180807F7E7E7E7F80808025
:102CB800817F7C7B7E7F8082818180807D7B7D7F20
:102CC80082837F7E807E7D7E8182817E7D81807C05
:102CD8007E807E7E8182817E7B7D7F7F80828280F6
:102CE8007E7D7C7E7F807F8082817D7B7D7F7F81F2
:102CF80081817E7B7E817D7C7F82827E7D7D7F7DE2
:102D08007E8182807F7F7F7C7C7F808081817E7EC8
:102D18007E7D7E7E8183817E7D7E807E7F81827FB7
:102D28007D7F80807E7F7F7E8082827F7C7C8180A9
:102D38007F808182807E7E7D7E82807D7F82817E93
:102D48007E7D80807E7F82807D7D807F7D7E81808C
:102D58007F7F807E7B7E8181808080807E7E7F7E7B
:102D68007F82817E7D7D7F7F8082807E7D7E838164
:102D78007C7E82817F7F80827E7D7F80807E808353
:102D8800827E7E7D7E8082807D7E81817F7F807D48
:102D98007D8082817F7F8080807F80807E7D7F8133
:102DA8007F7D7F82837E7C7E7F7F80807F7E808127
:102DB8007F7D7D7E807F7E80807E7F81807E7E7F1E
:102DC8007F7F7F7F7F7C7D83827E7D81817E7F7E0A
:102DD8007D7F8082817D7B7E81807E807F7E7F81FA
:102DE800817F7E7E7E7F8081807C7D8081817E7EEA
:102DF800817F7E807F7C7D81837F7D7F807F7B7DDF
:102E080082817F7F7E7D7F817E7C7D7F8180807FC8
:102E18007E7D7E7F82817E7D7D7E7E7F807F7D81BF
:102E2800837F7B7B7F82817E7F817F7D7F807D7EAC
:102E380081807E80827F7D7E808080807F7C7D8097
:102E4800807E7E7F82827D7C7E80807E81827F7F85
:102E58007E7C7E7F81817D7C8083817E7F807E7E7B
:102E68008180807E7C7E7F8183807D7B7F827D7C6C
:102E78007E82827F807E7C7E7F807F7D8183807E54
:102E88007E7F7F7F7E81837F7E7E80808081807F42
:102E980080807F7E8183827E7F82827E7B7E807E31
:102EA8008285817B7D80807F7F817F7D7D80817E23
:102EB8007B7E7F7E7F7F7E7D7C7D7F7E7E807F7A2E
:102EC8007B7D7D7B7D82817C7A7E807E7C7F817F1D
:102ED8007D80817C7D81807E7E8082817E7E8082F5
:102EE800808385817F817F808282828383848281BF
:102EF8007F82858484868889888A8D8F8D8B89874F
:102F08008486878482828281807A787877757678D9
:102F1800747272706D6B6C6E6E6E716F6C6C6E70BD
:102F28006F6F7274727174767678787A79777B7E3F
:102F38007B77757877767879777677767374798111
:102F48008584888C8F979FA5A9AFBDC9D0D2D4D5C9
:102F5800CFCBC7C2B9B3ADA6A09C958D87807A7731
:102F6800746E6968655F5B5955504D4D4B46423DDF
:102F7800352F2F312E2B2B2F3030353A3F43494DEB
:102F880051545A6164686D747B8083878E93969DD3
:102F9800A5A8AEB6B9B8B9BFC3C4C8CBCCCACACD48
:102FA800CECDCCCECFCECDCCC7C2C3C3C2C0BAB5AE
:102FB800B5B4B1ACA6A4A29F9B95918B8681797577
:102FC800716B645E5D5A5757554F4A4C4E4A45459A
:102FD8004747494C4D4E4D4B4A4D53585A5B5C5CE4
:102FE8005E5F5D616568696A6C6A6C717471727440
:102FF8007473757B7E7D797B82878B8B8B888485C8
:103008008A8C88868686827B797A797475797776D0
:10301800737375767976716F70727477797A77765B
:1030280075736F717676757374706A6B6E6E6D6B8F
:10303800696B6D6F6F6D6B696A6D71747777757594
:10304800777D80868B8986878C8E8E9091929391DE
:103058008F909290919394979B9894969A9FA2A2FE
:10306800A1A4A8A9A7ABB0B1B0ACA8AAB0B2AFA9A7
:10307800A6A5A19E9C99959290908C87888B89860D
:10308800827F78777C83857E7874767F8485817C5F
:103098007978797877797C787476757473726F71CA
:1030A8007A7D7C7A7B81868785858887878B8E91D8
:1030B800908C88878C908D8886868583807C7A79A9
:1030C80077746F6D6E7376716D6A6863636D727015
:1030D8006B6766696F72716D6E7072716B696D6E18
:1030E8006C6C6D6C6D6E6D6F7173716E71767B7CCF
:1030F8007B7D8487888887898F90908D8A8C8F9133
:10310800918F8E89807D818586817A7372767C7FA6
:103118007E7B7571707277797573757676777A7B41
:103128007A78797672757B7B757272747674706F43
:1031380073737477797B80858584888A8888898D7C
:10314800929796908D8E90919191918F8C89888885
:1031580084807C7A78757574767775716E6C6D710C
:10316800757773707173767C7D7B797876767A7CE7
:10317800797472777A7A7A787877797D7B797A7CBC
:1031880080868A8D8F8D8A8C939B9F9D9895989D1C
:10319800A09F9C9B9A989795918E8E8E8985828305
:1031A80086878887827B7A7D8082807B7A7A7A801C
:1031B8008280807F7D7C7D7D7D7C7B78797C797643
:1031C800747373767777777A80838386878787881F
:1031D800888A8F9291908D8A898B8F8F8E8D888324
:1031E800807F807D7A76747272757675726E6A6881
:1031F8006C737373716E6B6F757675747778777699
:10320800747674717374727375747373747473727F
:1032180073777B7F8184868685878D909292909143
:1032280093969592949695918D8A898A8A878480B7
:103238007D7C808485847E7877797C81817A7678B4
:103248007A7C7D7E7E7D7D7B7A7B7A7776787877CF
:103258007675726F6F71716F7074797D7E7F808003
:103268007E7F82878C8E8C8A888788888A8C8E8BD2
:1032780086827F7F807F7C7975757776757979749A
:103288007171717478787372737576797A7C7E7CD3
:103298007877797A7A7774737478797978757472BB
:1032A80071747779777982888A868181868F9597F4
:1032B800939190909396979794908D8C8E8D898703
:1032C8008583838282858785817C7A7C8183807DE2
:1032D8007A77797E808184827B7A7E80807F7B7A10
:1032E8007C7D7A76747373747473757878797D8459
:1032F8008682818183888E8F8D8B8A8E8E8A8A8C36
:103308008E8E8B8984807F80817F7A7472767C7EB2
:103318007A736D6B71797C78716D6F7577797B7C59
:103328007B7A7A7A7876737275777A79747171752F
:10333800777573707174777B818683818485878ABA
:103348008F8F909394929293969895918D8C8F915C
:103358008D8784807F83888A89867E7A7C80828331
:10336800827E7C7C7B7D7D7F8284827C7A7C7D7B77
:103378007B7B7C7D7C77747371706F7478797678D9
:103388007C7E8285858282878C8E8E8B898B8C8CC5
:103398008F918D88858485878581807E79767575FE
:1033A800797E7C77726F70757776757575737377BC
:1033B8007A7C7C7B79787877737272767777767691
:1033C80076736F6C6E727375787C80807E7E7F8377
:1033D8008B8D8D8C8D8F8E8E91939598948E8D8FED
:1033E8008C8B8C8C8985807E81878A87817C7E8284
:1033F80084827C7C7F80807F7F8081807F808280C8
:103408007E7D7D7D7E7C7877777673727272747636
:1034180076787E8383817F8085888A8B8D8F8C8761
:1034280086888D908E8A86858482838382807C7547
:1034380074777A7C7B767374767576787572707229
:10344800767C817D787675777B7A757172757676FC
:1034580076767371707071706F70767B7F807E7C0A
:103468007C8083858A8D8F8E8B8A8B91949492929F
:103478008F8B8B8A898B8B858181838688857F7EDC
:103488007F808284837F7B7A7C818484828180812F
:10349800817F7D7D8182807C777575767676747183
:1034A800717274777B7F828182848383868B8D8F10
:1034B800908D888A8E8D8C8C898685858687837D7C
:1034C8007976767D827E75717276797B7874727280
:1034D8007274777A7C7D7E7C7A7875737578797862
:1034E80077767674737070717372717171757B7E93
:1034F8007F7D7D7E8084898B8C8A898C9091929245
:103508008F8E8E8D8D8D8C8987837E7F858A8A8527
:10351800807F7E7E80838483807D7C7E8286868396
:1035280080808183817E7E7F807F7F7C76747476C5
:103538007676757271777E807F7F7E7F83888886B6
:103548008789898C8D8C8D8D8987878786858686E6
:1035580086827B74747A7F7F7C79777877757678C2
:1035680078767675767B7F7D7B7C7E7C77737578C5
:10357800787878777776737170706F6F7071767905
:103588007979797A7C7F8082878B8A8785878D9302
:103598009592908D8B8A8C8E8F8D88827F81858580
:1035A8008583818382807E808282807E7F81838200
:1035B8008180818181808282807F7C7A7B7C7A781D
:1035C80077757373717174797C7F807E7E81818257
:1035D8008689898A8C8A89898A898B8C8A8783815A
:1035E800828789857D77767B7E7E7D7C7977787A00
:1035F8007B79767271747B81807C7979797877763A
:10360800777877787976747474737474706C6D7075
:103618007378797878797B7B7D7F83878988888AB6
:103628008A8B8E91908F8C89898C8F8C85818185EE
:10363800878785848381818384838383817F7F8156
:10364800848382838282818080828381807E7C7D64
:103658007B797777767476757477797B81858380C3
:103668007E7F82898F8D8887898C8E8C88878786D4
:1036780085878A89847F7B7A7C7D7D7D7F7E7A774A
:103688007676797C797572757A7C7C7B7C7C7A77A6
:1036980076767575787B7876777471727271706FDB
:1036A8006D6E71717377787777787A7E8385828289
:1036B800868B8E8E8E8E92928F8B8A8D90908A8139
:1036C8007D7F82858786837F7C7E828484817D7EE0
:1036D8008588857F7F8183838383807D7E7F7E7ECF
:1036E8007E7B78797A7B7A777574797E8184858414
:1036F8008383838587898887868484848384868472
:10370800817E7C7E8487857E7A7B7F807E7E8282B6
:10371800807F7C7A7B7B7A797978797C81827F7CDF
:103728007B7C7C7D7E7B7A7D7D7B7A7671727573FE
:103738006B676665666A6D6C6C6D6C6E74787B81A0
:103748008789898C8F93979C9C9793939495948D54
:10375800858081827F7D7C7C7D7B78777C80818081
:103768008082838384878A8986868583848382810D
:10377800817E7C797676797A79747275797B7E81A7
:1037880083858586878585888B8C8C8C88838487C0
:103798008886827E7D818485827D7A7A7B7C7E7F25
:1037A800817F7B78797B7C7B79787A7C7D7E807F52
:1037B8007F7F7D7C7C7C7C7F7F7D7B7A7874737453
:1037C800736F6D6B686564666B706F6D6E6F727822
:1037D8007C7D8085878A8D90929495939394959615
:1037E80094908B89868484858685807C7A797B7F92
:1037F8008281807E7B7D81828383828285878583A7
:103808008382838483807C7B7B7A7B7A77757375EC
:103818007A7F807F7F80808286878788898A8A8A64
:10382800898A8B8986838285878785807C7A7A7B5B
:103838007E82837F7C7A797B7C7C7B79787A7C7BBF
:103848007A7B7A787A7A77757677777879787575F2
:103858007677777573727171737676767778767511
:10386800777B7D7D7F807F7E8084898C8B89858531
:10387800888D8F8B888583848789888785828183D3
:103888008583828282848583808080818385848207
:1038980082828283848482817F7E807F7B7978762E
:1038A80077797B7C7E7F7E7C7C7F83858686878715
:1038B800868586888A8A8885838486868381807DB2
:1038C8007B7C7E7F807F7C7B7B7B7B7B79797C7D2F
:1038D8007C7C7D7C7B7A797879797878787777774A
:1038E80075747677767776726F6F71737679797784
:1038F8007475787C7D7E818282828285898B8D8CAD
:1039080089898C8E8B898988878684858786838137
:10391800807F8183828182817F7F80808183837F92
:103928007D7F817F80828283807D7C7C7C7B7B7BAA
:103938007875757577797C7E7D7C7D7F80828486BD
:1039480089898685878A8C8C8986878988868582F5
:103958007F7E7C7C7F82817E7B78777A7A7A7B7C9B
:103968007B7B7B7C7D7E7E7E7E7E7C7C7C7B7C7F85
:103978007E7B7A7978787A7A7976737172757778C6
:10398800777677797B7A7A7C7F8180808183868A53
:103998008B8987878889898A8A87827F81848585B8
:1039A800847F7C7E808081807E7E7E7E7D7D7D7C26
:1039B8007D7F7E7D7B7A7A7E807F7D7C7C7B7A7B37
:1039C8007C7A78787877787B7E7D7D7E8181828429
:1039D800878A89878686898E8F8D8A89898A898947
:1039E8008A88837F7F81828484807D7D7C79797BCE
:1039F8007C7D7E7E7C7B7B7B7D7E7D7C7C7C7B7DF9
:103A08007E7C7C7C7C7B7B7A797A7A787674757616
:103A1800787A7A79797978797D8181807F7D7E84D9
:103A28008A8C8B8785878988888A88858382818123
:103A38008282817F7E7D7D7D7E7D7E7C7C7C7C7BA1
:103A48007B7A79797B7B79797B7C7D7E7E7C7A79C0
:103A58007A7E7E7C797777787B7D7D7D7D7E7F7FA2
:103A68008184878786858483868A8B8988888785E9
:103A78008585858382807E7E7F81817E7B797A7B46
:103A88007B7A7B7C7C7D7D7B7A7C7D7E7F7F7E7D67
:103A98007D7F808180807E7C7D7F7F7F7E7C797842
:103AA800797A7C7D7C7C7E7D7D7E80818181807F32
:103AB8008184878987878785848587878684827FAD
:103AC8007F8182817F7D7C7D7E7E7E7F7F7E7D7C07
:103AD8007C7C7D7E7D7C7B7B7C7D7E7E7D7E7E7C12
:103AE8007B7A7B7C7C7B7A7976777A7C7B7B7D7D25
:103AF8007E80818284848484838385888989888779
:103B080085848484848381807F7E7F82807E7D7BA0
:103B180079787B7C7D7E7D7C7C7D7E7F7F7F7F7FCF
:103B28007E7E7E7E7F807F7E7D7C7D7E7F7D7C7BB2
:103B38007A7A7C7C7B7B7B7E807F7D7D7E7F8181AA
:103B48007F7D7F8386878785838283848687858335
:103B58008180818282807E7E7F7E7D7E7F7F7E7E69
:103B68007D7D7E7E7E7D7C7B7B7B7B7B7C7D7D7D86
:103B78007C7B7B7B7C7C7C7C7A7979797A7B7B7C8F
:103B88007E7E7E7E80828384848282838587878806
:103B98008887868483838384838180808282817FEF
:103BA8007F7D7C7C7D7F807F7D7D7C7E8182807F28
:103BB8007F7F7E7E7E7E7F7F7F7E7C7C7C7C7D7E21
:103BC8007E7C7A797A7B7B7B7D7E7E7C7C7C7D7E2D
:103BD8007F7E7C7D7F8083848382828282848485C9
:103BE80085838180818383827F7D7D7C7D7F8180C9
:103BF8007F7F7D7F84857F79787D827E77797F80DE
:103C0800807E7976777E8182818181808284847FBB
:103C18007E7F82828F88817F7A848785737B858384
:103C280086838284827E7B7C7F7D736D73797D79C8
:103C3800757473717274757A7F7B7671787D7D7E09
:103C480082807B87847F8386878A867C7D7B7E8152
:103C58007F807A82847F7973828B908F8E8D8A9110
:103C68008C88867E818590837C817F86888774791D
:103C7800809398796E8399958682817981858885E4
:103C880070658D95786D6676897D6872847A666CC4
:103C9800847B71747B897E726982847B81757A8367
:103CA80089776F79868163668B897C7A71697C9A5A
:103CB800787B91877F759C8F707596AB836F7F7BC0
:103CC80075866C8170516C66707B7B6B59849776B6
:103CD8006F8D917697A48E8291A291898B9087910E
:103CE8008879846A7C866D78807659638C97836B33
:103CF8007D97807F8A8F8E98957F8395867D7F7943
:103D08009E866A87A676609094716A887F7D8B6E9E
:103D18004F6BA19866709D81579289648C9F8386AA
:103D2800A397797C958C7C8993827582816D768A3C
:103D3800725E8A7952596979734E5D6D6A6E7B82BB
:103D48005C74758087898E876C8FA58A7A8EA87C2B
:103D58008B8A74616C617A84676C56608390646B3B
:103D68007C7E98998770939C98A9928C8394A19C47
:103D7800886F828172807B7071737B8C7D6776819E
:103D880086888A72787C79939889737C7D939274FB
:103D980085706D8F906F698A8985887C7F8B857522
:103DA8007D7F78857C7D867F8D8E727B8D7B74820E
:103DB80087838D9684868A818C93867C8484827599
:103DC800727F776B6B766B6F797368696862706AFC
:103DD8006F78807E818684918D8D8D827A848B82A6
:103DE8007E898A827C707E7556636E6D6D6A707E80
:103DF80077718085807E89918A8F9B92919896931E
:103E080093908C8888817C867E6F72767C746972C8
:103E180076797C7B7B7F7774808D8276848A8D909F
:103E28009B90888F938A7F84848585827D81837F18
:103E38007A767574767A7976878C85868484838396
:103E48007A828988837D8187857B81807F86877E4A
:103E5800767A7C7D7A737072747271747471716E13
:103E6800696D70787870757D7F888B828183818099
:103E780084878684867D777C81797074777673757C
:103E8800797C7E807D7D838583817D828E908B8702
:103E980086898B8A888A8A878382857E7C7F7E77DB
:103EA800787D7D7D7F827F7A76767C7F817E7C7B44
:103EB8007F8A91908C8C88827F7F878D897D7B8299
:103EC800807B7A787573757D8686868789898B8BE2
:103ED8008785828182838484817F80807F7F8184BB
:103EE800827F797B7E7C777475717171767B797648
:103EF800716E6F7677787875777C818285807C7D26
:103F08008183828487877F7D807F7C7876757575CD
:103F18007677797E81807D7F84847F7E8287898998
:103F28008686858486858788898A87807D8283803E
:103F3800797577787C7D7E7F7E7973747A828480C8
:103F48007B7F868C90908D89868685878A888382F8
:103F580082848580797677797B7C7D7F858988895D
:103F68008B8B868281838887848382827F7D808110
:103F780083837E7B7B7B7C7E7B766D6C70757574B2
:103F88007673706E6C7379777476797A7D808181B7
:103F9800817E7C7E8485837F7E81807F7C77767737
:103FA80074727374787C7D7C808180807E7E81854C
:103FB800888A8B8886858587888A8A87838385838C
:103FC8007F7E7C7978787B7F7F7D7D7A76777B7F33
:103FD8007E7A7A81878987898E9088838386878687
:103FE80088878583827E7C7C7C7876787D828282D5
:103FF8008485888682828384858786868583828075
:104008008081808283807E7E7E7D7A7673717174F2
:10401800767979746E6B707477777574777D7C7E3A
:104028008284827E80818183827D7D7E7E7D7C7A92
:10403800777676767475777A7B7D7F82827F7E81CC
:1040480085878788898A878581828688878484820C
:104058008383807F7E7C78777B8083868179747682
:104068007A7F807D7C7E8184888C8E8A8584848812
:104078008B8885868584827F7E7D7B78777A7D7F35
:1040880080838483868786838486888785888887D3
:10409800817E828687827F7E7F7F7C7A7977716F47
:1040A8007071747B7B74706D6D747B797978787AB4
:1040B8007D807F808081807F8081807F807D7D7A08
:1040C80077797A777170727576777A7B7D7D7F8064
:1040D8007F8283868989898989828183878D8B8478
:1040E8008081818081817D7875777E868A867D77DB
:1040F800767A7E7F7C7B7D7F83878988898987879D
:1041080088898A898788898782807E7E7E7A787A7C
:104118007C7D7F8183878886868685858688878853
:1041280088848180828487857F7E807E7C7C7A7982
:1041380076706E71777A79736E6E71747679777737
:1041480078777A7F8081817F7E7F8182818182807A
:104158007D7C7E7D787471727676737477797E82D1
:10416800807B7D8183858A8D8A86858583858888FD
:104178008586838184827C7A7C7A79797B7E838444
:104188007E7A7778797B7E7F7F7E7E82888B89872F
:104198008786888A8989888988857F7D7D7D7C79DD
:1041A8007A7C7C7A7B8186878887878887868787D9
:1041B8008887878380818486828485817C7D7D7CD5
:1041C8007C7A75727271797F776F6B6D7176797998
:1041D800787576797B7D80818180807E7F80808202
:1041E800827F7E7E7C7A7876767372747373787A3F
:1041F8007C7C7B7C7F83818185858889858384839A
:104208008488898583817F7F81817C7976777B82A9
:1042180087847D7877767A7D7E81807E7F838788A4
:10422800888786888887888A8B898582828080802B
:104238007D7A7A7B797B7D7E818687878988878965
:104248008987888B888484838588878482817E7C1B
:104258007C7F7F7A7574737479797675736F7174EE
:10426800767A7A7879787A7D8283817F7F80808078
:104278008284817E807D7C7E7A7574737376767590
:104288007777787C7C7D7F7E7F818588898682832D
:104298008485898B88848181818080817F78747806
:1042A8007C81847F797A7774777A7D7F7F7F828437
:1042B80086898886868687898A898987858483818D
:1042C80082817B797A7C7B7B7B7F848384868788E9
:1042D8008786898D8B878887838383858A88827F71
:1042E8007E7D7C7E7F7F7A7270757A797571717246
:1042F80070727779787674777D7F7F807F7E807F14
:104308008083827F7E7F7F7F7C76777875757673F2
:104318007171727A7F7B787A7B7F808083878783CD
:104328008383838283848886827F7E7F817E7C7C70
:1043380079787D8284827E7977787B7C7E7F7E7EA9
:104348007E838787848385898887898B8A87878600
:10435800848482807F807E7B7B7B7C7E818487884F
:104368008887888988888B8B8886848485888887CD
:10437800857F7B7B7F81807C777475787877747391
:10438800737475747678797B7A77797D8180807F8C
:104398007E7D7D8080807F7C7B7B7C79787A797656
:1043A800767676787A7B7B7E7F808182828283852F
:1043B80087868381818487868687837E7E808282C2
:1043C8007E7875787B7C7E7B767571717274787B6C
:1043D80079797D7E81868887898B8F919191929258
:1043E8008F8D8C8B87817D7E7F7C797576797C7FBC
:1043F8008080818485868688898A8B89878A8A894C
:10440800898786817C797A7D7F7D746E70747576F4
:104418007673747576777B8183817E7D80838685CC
:10442800807E7F80817F7D7C7B7B787573737674DB
:10443800706F717273727172777B81807C7D7F85FA
:10444800898C8986888B8C8B8C8D8E8E8B868284CA
:104458008582817F7875787B7B77726D69686B6FF1
:1044680072737272757C7F7E8186888A8D8D8F9437
:10447800969593928F8D8A898884807D7C7B7B77C3
:10448800767B808281808082828588868383868805
:104498008A88878887827E7D7E83847E7977747414
:1044A800797C7A767274777B7F7E7A7A7C7E7F7E5F
:1044B8007C7B7B7E807F7C7A7B7D7F7E7B79787737
:1044C800787A7977757373757675777B7C7D7E7E60
:1044D8007E808284858584848587898B8C89838185
:1044E800828385857F7C7B7D80807E7B79767473F3
:1044F80074757677777776777B7D7E7F81828589FD
:104508008A8A8B8B8C8C8C8A8786878584827F7D30
:104518007C7C7D8183838383828283848584838575
:1045280084858687888784818182838586837E7D4A
:104538007D7D7C7C7D7B78767473767A7A787776E5
:1045480077797A7C7B79787B7C7D7E7D7C7B7979B9
:104558007B7B7A79797A7877767777797C7E8182AE
:104568008483838788888887898986878A8A8987D0
:10457800827E7D7E7F7F7C79797B7A7B7D7C7A7871
:104588007475777A7B7C7A797A7C7D7D7E7E7F8173
:10459800807F8082838483817F7E7E7E7F7E7C7B1A
:1045A8007978787A7C7E8185878685858789898AE6
:1045B8008C8C8C8B8B8B8C8C8A8783828588888467
:1045C800807D7B7B7B7C7C7875727274777978765A
:1045D800767879797B7B7A7C7E7E80818181828105
:1045E800818282807F80807F7D7A787677797A7CF5
:1045F8007E80807F7F818282838483838384888A8C
:104608008A86827E7E808281817E7B7C7C7C7C7FA8
:104618007B77757476797B7A7978787A7B7C7D7EFE
:104628007F807F80838584848484828181807F7D6C
:104638007C7B79767778797B7D8182817F828383A1
:10464800878889888888898B8D8D89848286898ADC
:10465800878381817E7D7E7D7B78777573747476A0
:1046680077767676767676787A7C7B7B7C7E8181A7
:104678007F8081828180808081817E7A7978777855
:104688007A7D7F7F80808080828383838383858710
:10469800898C8C87828181848685838281807E7ED5
:1046A8008081807B78797A7B7A7A7A7979797A7A53
:1046B8007B7B7C7F7E7F82828080828281807E7D00
:1046C8007D7E7E7B787576787A7D8183838284850A
:1046D800868685878888898886888A8B8885828166
:1046E80083838484827E7B7A7B7C7C797673737403
:1046F8007779787776767777787A7B7B7B7C7D7F1E
:104708007E7E7F7F7F807E7C7E8081817E7B7A7BC0
:104718007A7B7E808283848385848284858586856E
:1047280085888C8C8B8884838280828382807F7D3D
:104738007D7E7D7E7D7B7978797B7C79797B7A79C2
:1047480079797B7E7E7D7E7F7F80828181807F7E7E
:104758007F7E7F7D7A7A7977787A7A7D8181838581
:104768008482838486888988868485898A898581E4
:104778008082828384837F7F7D7C7D7E7C7978764E
:10478800757879797978797877787A7A7A7B7C7D8F
:104798007E7D7D7E7F80807F7E7F808183827F7E1D
:1047A8007C7C7C7C7C7F82838584818181818284FE
:1047B80084838586898B88858381808182838482AE
:1047C8007F7E7D7F80807E7B7A7A7B7B7B7B7B7B19
:1047D8007B7A7A7B7B7C7D7D7C7D7E7E7E7E7E7F08
:1047E800807F7D7C7D7C7B7A797877777A7E808103
:1047F800828281838485878787868686888A898757
:10480800868483828383838281807F7D7C7C7C7A9B
:10481800787776777879787979777879797A7B7C07
:104828007C7E7D7E7E7E7E7E7E7F807F7F81818195
:10483800807E7D7C7B7B7D8082838382818080817A
:10484800818282838486878787858280808081822F
:10485800817F7D7C7D7E7F7F7D7A7B7C7D7C7B7C80
:104868007D7E7C7B7B7C7D7C7D7E7E7E7D7E7E7E70
:1048780080807E7E7D7C7D7E7C7977787A7B7C7D6E
:104888007E7F8184848483828487888786858587E0
:10489800878785838080807F8181817E7C7C7D7D08
:1048A8007B7A7977797B7978797A7B7B797A797968
:1048B8007C7F807D7B7F84827C7C80837F7B7F87FD
:1048C80087817F80807977848D887E7B88928C80B1
:1048D8007D84898680858B858188939081747A8987
:1048E800877B777D7F7E7A7B7C7B797A838C745E0D
:1048F800728982808458517C8A7D859A816C645A39
:10490800718D96825C6F9F814B587D82788C9571F2
:10491800626B636A76686C85735A657B94A4977931
:104928006870A8BEAABFB895A9D3D2C0B8B9C8D371
:10493800C5B699839FB5AE8D8A847F867D7466657A
:10494800626A6A58535549473D3345554E42271ABE
:104958002737382F34303D41434840424D505F7B24
:10496800765C546575849194827C9AADA8A7ACABAB
:10497800B7C1BFBCB3B0B8BAC0C6BEBED3CAB4BE56
:10498800DCE6D6CFCDCCC9D3D4CCC4C1C6C3BDB563
:10499800ABA8AAA6A19E967F81878676727A706D4B
:1049A800727F705A535D64635F57463F484E524367
:1049B8003F4A5C5749433E4E575446434C4649513B
:1049C80056525561676F696365717871706A625F85
:1049D80066716B5C5D7278706E7A87837B7D8C8C78
:1049E800827C828D87828086807B7F7C7B736B63F1
:1049F8007076676969635F626A7982797F87847A8A
:104A08007682867F797C776B6B736E5E657A7F734F
:104A18006C7788898182898B8E8F979A9B989FACB7
:104A2800A29A9EA29E9B9B988C828B918B86838454
:104A38008A8A909B9E90868C99A78F82959D87796C
:104A4800868F8D92ABA78E8A9AA8A3978A8D9A98FB
:104A58008D847E7A828F928C80919C978D98A48881
:104A68008692907F79797A897C767A83857D8C8E17
:104A78008873778E8D85787A747B7C717C7B6F6484
:104A88006F6B6567657776665B67777A837D838CFE
:104A980087848C8D7978777E816E656269656B6FA6
:104AA80072787B7D85918D878590918B8A89919885
:104AB80096918C8786838586847E707175716F69FF
:104AC8005E5E676D6C6C75787A7A707578757D76D0
:104AD8006C676B74797A757276827C7C797B82706C
:104AE8007279776A666567727373727E7B7A83827E
:104AF8008B88858A837B80877F7C7571777E8885A4
:104B08008C8684857C7D7B7F8089837674767E74B1
:104B180072707170717B75747276797B7E7D868E0A
:104B2800918A8C9897928D8A7E7B7D7876716E6E4D
:104B3800747B7D7C7B8A9693919798969A959A9F99
:104B4800A19F9E9C918C8A939A928B9492827E7F4D
:104B58007F7B7371777B7B797A787F8175808A8395
:104B680081827E767578858273757F85888E80834D
:104B780093857C808377737C868676757B817C843D
:104B8800887F8E8E898686817E8586837978777EF2
:104B9800868A8E817F827978808078767876726E40
:104BA8006C6E7773706D6A767A7973736F6E7E84C4
:104BB80085868A878A8D8F948586867E7B736961D0
:104BC8006B6D6C6E6C74777E859390899EA09C94B7
:104BD8009292989F949389807F878F8E8A79818A11
:104BE8008787807A757B7B7A7E777B7F7972797508
:104BF800758683807C746F757E8189848289847BC5
:104C0800858B7E83867D7D7B7270777677787479E5
:104C1800776C7788808291887C7D7F8086867D7995
:104C2800797D84807E8B8375818679787B74716CBD
:104C380065697374706B5F68736D798574676F7677
:104C48007D85817F8991908D8480867F7D887F6C2A
:104C58006A6C6A6E6F696B75787B817D869899A09E
:104C6800A08E89959EA19C8E8A9096928A83818C2B
:104C78008A8A9184767A817D7873717B8A8C7F7336
:104C8800717D8883847E6D6C79807F7A747B888956
:104C9800827F7E7E858789908479797A7976716E2C
:104CA80072767674757F87888384847B808688840F
:104CB800807F7E838484828285828083897B7679E3
:104CC8007474706F6F757570716E77787777787B9D
:104CD80072797E8688898E8787878F8B8581737A9C
:104CE800828371696B696D69706F717482908B953D
:104CF8008B89959C9B909B97958F9192817F8597A7
:104D0800918B8073848E8E797779757D7F897D7795
:104D18007B87897C7F6D74807F79727B78838C8BAD
:104D280081737785998C847E7B8E8E897874727175
:104D3800787474686A7583807377727E86878583D2
:104D480088858F8F887D7B8A9495827E7A818D82F3
:104D58007A6D6B6B727A77736A6F737A716B706D39
:104D6800797C7B7678838A8D89867D808D918B7E10
:104D78007B787E7E736F666667686B6E71707C8702
:104D880089868C8C8B95969EA29C99918E8B878414
:104D980088908F87868780858580847D7B7E7C7FD1
:104DA80086867F7B7A757B837A6F7170767F7C824B
:104DB800807F8081838187858B938D8684827C80A8
:104DC8007A74736B6D6D6F6C6F747686837B797F85
:104DD8007F87968E8C838084888D89878087888357
:104DE800807D78717A736D6E717978756A69686E8D
:104DF8007F7D7B7474717F8D83868287888B877EA5
:104E08007973828480746B696B786D6B6E6D717465
:104E18007D7C83848B9390948E8F8F9CA2908B85BE
:104E28008987898E8C837E86848A88838182897F1C
:104E3800828787837B7A7779767A7B7675747872BE
:104E480079827F84858787888783858E928C8C87F3
:104E5800867D7578716E6D6C67666D7276797E7E0B
:104E68008183878E898E9188888B8C8A8985817FBA
:104E7800817F7B7978807A72757070777A726E6FBD
:104E88006F71767976787A7D837E81868186898648
:104E98007F7D7C787C7D77747777776F6770706FAC
:104EA80072706F7581878B8D8B898A8F95998D8BA1
:104EB8008D84898C86808486838A877F838B8F8F75
:104EC800877F878885847F77747C7A797D7670760A
:104ED8007C7B7E7A838A858886837E8489888E8A8D
:104EE800848A8C827C716A71706C6B68686E7C7C59
:104EF800797E7A818F908B8C868C90868687888144
:104F08008380777A78787E7B74706A717F7A74721E
:104F18007173777F78777E777B848685827D8789B2
:104F28007D7F7D7C757977737D726C7375706D6C20
:104F380070797171767C818489858D90889193913F
:104F4800908D878E8A8288888A82847E808C8285EA
:104F580089857F807E878E807F7D7E7A787A76814C
:104F68007A737D83838382818D847E828081808829
:104F7800828B908284837D787B7275776D71757B67
:104F880077797873827D7C878F898684808B858604
:104F980084888982847D86867E807D78757B798009
:104FA800796E71717570736F737F75787F8482867F
:104FB80085878D7E7F80837E7B7B737E796F707320
:104FC800706E706C706B6E75787F7C827F848B8757
:104FD8008C92958F8E8B8E928D8F8889858788830A
:104FE8008B87807D7F7F7E807E7F7A7A78767B7ADA
:104FF8007E7B7D817E83898A8586888C8581817E7A
:1050080082838281828680797978797775767372DE
:10501800787C7C7E7B7B7D818684858887837E8483
:10502800857F81828081817D7E81837F7B7D7D7D7F
:105038007B7F8179787676757976757A74797B7ED7
:10504800807F807D87807C7F7E7D7B7E777B797487
:1050580073707575756F716F6B787C7C7A7D7E7DEA
:1050680085818B8E8B8C8D8D8A958C8C8E89868490
:105078008782898886867E7F85878386847F827EED
:105088007D7A7D7C7B80777F858284868687887D14
:105098008080808184878287827A83807D7F7A7A04
:1050A8007D77767B7B79777A7A78807F868C848126
:1050B8007F7E83827C7E81807C7C808387837D82E7
:1050C8007E7F837E807E7575787975737776787C38
:1050D80073777F797C7A7F807F7C7D8080827E7EFB
:1050E800787A79737B73706D6C727071727A7A7D6D
:1050F8007A787D7F8781868B8689868B8E9193913E
:105108008F888B8A8B8C8A827A81807E7D7C807E58
:105118007C76787C787676787B807D808A86858DAB
:105128008C87888A89898A898785827F78787C7F35
:1051380078727675757A7B797676797F80848684BD
:105148008C8D868689878587837C7C7B7C7F7D7830
:105158007C7B747C7C797E7D7B7878787B807D799C
:105168007A817E828380878081847F8483807C7C2F
:105178007C7F7D747371757375746A6E6E747B7BD6
:105188007B7C827D808184898887878985858888DA
:105198008A86868484858285807B7B7A7B7F7E7DF8
:1051A8007D7C7A7D7D7B7B797A7A7D7E7E83818129
:1051B8008283827F87858183878A85807F7C7D80C3
:1051C8007D7B7D7A7C807E7E7E807E7F827E7F84F2
:1051D80085878A83828D897E8289837D7E7F7D8192
:1051E80083807C7C7C82888184817C807D7F7C79C3
:1051F8007B797A7C7976837D767E80857E80807CDB
:105208008482827F7E778184767C7A7774797671DE
:105218007A797E7C78767C887E7E81848581858596
:1052280087868B8C8685818D8F858582817F817E1F
:10523800767C847B777971777B706F747475777AF5
:105248007A7E7E7B83837D818D8B84898989828028
:10525800837D7E7E7C797A777880787A7B7A777599
:105268007E7D8384808388817D9288808682817E0A
:1052780084807F7F7C7D7C7C79817F7C7F78797658
:10528800777A7A7B797E7D7E7B7E8B878082898721
:1052980083858483828280817D777D7C7376746E3A
:1052A800737577777B7C7B7F7F7F858E8684888804
:1052B8008985898A898B86868485878B857B7D7994
:1052C8007A7A7D7D757C7A797776757A80757A7E3B
:1052D8007F7D7D827D838280858580838F868181A5
:1052E8007E807B7E7A7A7D7676777C7982807A7FFB
:1052F8007D817F84838186858481837E878D7C7A86
:10530800797C7D7E7E777979797A807F7D867E7CCF
:105318007D7F827E807D7C7E7F7F807F7B86877F8E
:105328007F7F817E81817F827F7D7E7E797A817990
:10533800757676787B7F7E7C7D7D7F82817E878790
:105348007F808185848386858282848A8B84828A11
:10535800837D7D80837F807B7B7A76767A7A767B85
:105368007A7678777B7B7B7C7E7F7E828388868556
:105378008A8481838384807F7B797B7A787E817E2F
:10538800827D787B7B7F8080827F7F7F8282848121
:105398007F827D808181807B7D7A7B7D7C7C808221
:1053A8007A7F7E7A7D7D7E7C7D7C7D7F7E7F81831A
:1053B8008085857F8382858584827D7D7D7D7B7CDC
:1053C8007D77777576757A7D7A7B7C7C7D80808227
:1053D800848284868383878786868483858684837C
:1053E80085847F7D7C7D807F7E79777977787A7AEE
:1053F8007B7C7C7C7F7E7C7E81817E8280818683B3
:1054080083878A8382818081817F7A7878797B7C9F
:105418007E7C7E7F7F807F8282828483838281807C
:10542800818184847B7C7C7B7C7D7C76797B797DA7
:10543800807C7B80807C81828080827F7E8180816D
:1054480082828284827E8282808183817C7C7C7954
:105458007B7C79787B77757B7D7B7B7F7E7D827F8C
:105468007F82818287827C8184838385817D818319
:105478008382807E81837D7D83827E7C7D7B7B7A37
:105488007B7E7D7B7C817E7A7C7C7C7E807D7C7F44
:1054980080828484828484818384807D7F7C7A7EF8
:1054A8007F7D7E7F7D80837C7C80838180807D7D05
:1054B8007E80807F7D7D807D7A7D7F7D7C7E7B7A0E
:1054C8007E7E7F817F7A7E837E8081807E80807DE4
:1054D8007F7F7E80817F81847F7E8386837F807DBE
:1054E8007C7F7E7D7C7B767B7B797B7C7F7B7C7EF7
:1054F8007E81818180807F83858082848683838486
:105508007F80808182827F7D847F7E7E817E7A7BA0
:1055180078797A7D7D7E7C787C7C7D7D7E807E7FBF
:1055280080818082848283838284827F81837F7A60
:105538007A7B7D7F7D7C7E7D7B81817E8082837F7F
:105548007F7F7F8481807F7F7D7E7F7A7C7C7E7C6D
:105558007A7B797B7D7F7D7C7D7E82807F7F818267
:105568007E807F7F81817F7F7F7E8383808282812F
:105578007D7E7E7C7F7E7B7B7B797C7F7D7D7E8054
:10558800817E7F8080848382808082838381818200
:1055980084817F7D7B80817F7E7E7D7F84807E7D10
:1055A8007D7D7B7C7B80817F7F7D7C7A7E7E7D7E1E
:1055B8007D7F7C7D7D7F8380807F84838083827DE7
:1055C8007B7F7E7E7E7F7F7E8081818081838081DC
:1055D800807F7D7B7D7A7E7F7F7F81807D7D8384D8
:1055E80082807B7E7C7B7B7B7E7878817D7C8187DB
:1055F8008982817B7C7F7A798279767E80818089B5
:105608008F83868A898581867E7C7A78767972729C
:1056180080817F80818284847D7D817B7979857F8B
:1056280081837F8393867083958D78848B877D8033
:1056380076767E79727C847F7B807F807F747679B2
:10564800867673777D7A82847C898C8A8C8D8B8030
:1056580083867F746B7C817D69848B7B807C858A63
:105668007E778680717F7468768B816F8A82777B7C
:10567800898E84797C8A85766D7B8C796A7E8A7638
:10568800758D817D727B877C7F7E7A728288787542
:105698008F8C7A858C85808B7F787F857E706F79FB
:1056A8007B7A71836B61968E736E8F837B95896F1E
:1056B8006F97946D7D928278898C81898481798EA7
:1056C8008D7280847C6E7D897B5C769B78717D820F
:1056D8007D7C83817A75927956939566739D916CDA
:1056E800979D747F9577768F796F7A8E6E74806FB9
:1056F8007D868673737080987A5880957B799C75BF
:1057080069938B78829C777B898F7B78738B785AA7
:1057180098756B77878574857B788884778A826D9E
:10572800888D847280857B76759D8579897F867E54
:10573800767E847D6B838C825E75887B8D847D6CA0
:1057480084827C7C888077908382787282848C8241
:105758007E827D867D84887B727A84807B747B7F61
:10576800817D817D737E7F7D7E7D738088807F8152
:105778007A7E91888A8B81838E847C7D837E7B7AF6
:105788007E84766C7F8C7A7A7376807C727B867561
:10579800777F808081767C93857C828483808384F4
:1057A800897A7481867F797977857C71827E73782E
:1057B8007D7F80857B7E8F83848981828B847D87B2
:1057C8007F797F7E787C83787A8080827E7E8086EF
:1057D8007C777E777A7B77788680747D83888182F0
:1057E800818A8C7D8488817B7E7E7D80747A8684A4
:1057F800797A837D857A7983807B7783787E8275D1
:105808007E86857D8B83848C818883847883857963
:10581800827C797A83757C8076827F7D757C7E78C0
:105828007C787C8280797F847D85817C8382807C82
:10583800837E7C7D7B81827F7D868686807E807E5E
:105848007E7578807A787D7D7F807F828A8882885D
:105858008B8681847D7F7E737B7C79787F7F7A815C
:10586800807D817F797F837D7D797A7F7B787C8459
:105878007A83897F8685837D857E7B847F807E7C15
:105888007A837E7987807C7E807D777C787F7D7A3D
:105898007C808581827C8D887F8484877A81807EE4
:1058A8007D777F7C7D7A7C7C858675818581797919
:1058B8007E7A7D747B7E7B7679827D847D828A8206
:1058C800807B868279787D817B7B7C847D7E8180EC
:1058D8008A7E7D8083817A7D7C7F79797E827E7DD8
:1058E8008A838382838881837D828680787A807C9C
:1058F8007A79807C797F7D837A78807F7D7A7A7BDC
:1059080083807E7F848682867F83857E827F7D7C7E
:105918007C7D82807C7E82867C80807C8277797E9A
:105928007A787B7B7C807F84858782868F81878657
:105938008084817F7A7C7B797A7B7C7D7E7B827C8C
:105948007F847C807F7C78797B7879777C7F7F7C8B
:105958007F867F8685808281837F81807C7F7F7E32
:1059680080807D807C80837A7B80817A7B807E804A
:10597800817F7F848181858183827F7F82807C7F14
:105988007E7F7D7D7E80807C8280807C7A7E7A7935
:1059980075797D7C7D7D82808482848982838383FE
:1059A8007F7F807B7D7E7F7E7D7D7E837F7E808105
:1059B8007F7B7E7C7D7C797C7E7F7C7F8184847EFE
:1059C8008385848182837F7F7E7D7E7E7B7B7C7DD9
:1059D8007F797C807E7C7C7B7B7D7B787C7E7A7EFD
:1059E8007F7C82817E8284807E81828080807E82AC
:1059F8007F7E828082807D7F7F7F7C7D7D7D7C7CB9
:105A08007B7D807B81807E8480808084808085818E
:105A1800807E7F7C7E7C7C7F7C817E7E80817F7B9C
:105A28007F7D7B7C7D7E7D7E7C7F7E818380818285
:105A380085817F8181817F807E7F7F7F7E7F837D5F
:105A48007D7F817E7B807D7E7E7B7C7D807E7F7F6F
:105A58008483808081847F828180807C7D7F7E7A40
:105A68007C7D7F7E7D7E7F827B7C807B7B7C7C7A5D
:105A78007D7D7D7E7E7F82847F81817E827F808224
:105A8800827F7F807E7F807F80837F80867F7D7E10
:105A98007F807D7C7B7E7F7D7D8080807E7C858213
:105AA8007D8283807D7F7E7E7F7D7D81807E807EFE
:105AB80081817A7D807E7B7E807C7C7E7F7F8080FA
:105AC80083817F827E81817F7F82827E7F7F7E7FCE
