:020000040800F2
:100000000050002021020008270200082B020008EF
:100010009D020008A1020008E9020008000000009B
:100020000000000000000000000000003103000894
:100030003503000800000000390300089909000892
:100040004D0300084D0300084D0300084D03000850
:100050004D0300084D0300084D0300084D03000840
:100060004D0300084D0300084D0300084D03000830
:100070004D0300084D0300084D0300084D03000820
:100080004D0300084D0300084D0300084D03000810
:100090004D0300084D0300084D0300084D03000800
:1000A0004D0300084D0300084D0300084D030008F0
:1000B0004D0300084D0300084D0300084D030008E0
:1000C0004D0300084D0300084D0300084D030008D0
:1000D0004D0300084D0300084D0300084D030008C0
:1000E0004D0300084D0300084D0300080000000008
:1000F0000000000000000000000000000000000000
:1001000000000000000000005FF808F100B583B0B7
:1001100000F0AAF9304B314A1360314A1360314B79
:10012000314A32498B4204D21168196004330432D7
:10013000F7E72A4B1A682E4B9A4200D0FEE7284B6D
:100140001A682C4B9A42F9D1234B2B4A13602B4A45
:1001500013602B4B02E000221A600433294A9342B9
:10016000F9D3254B1B6813B9244B1B6803B1FEE779
:1001700000F086F9694601A800F022F9224C234BD1
:10018000E41AA4100025AC4214DC214C214BE41AE3
:10019000A4100025AC4213DC0099019800F0A8FCE3
:1001A00005461D4C1D4BE41AA410002C0EDC2846FD
:1001B00000F0E2F8154B53F8253098470135E2E797
:1001C000144B53F8253098470135E3E7013C134BB6
:1001D00053F824309847E8E7BABADECA0000002096
:1001E000840000200000002024B5000888000020C2
:1001F0007856341232547698880000202801002066
:10020000880000202C0100207803000878030008F3
:1002100078030008780300087803000878030008D2
:1002200008B5FFF773FF00BEFEE71EF0040F0CBF1A
:10023000EFF30880EFF309807146414A10472DE93A
:10024000F04182B004468846124B5E6B9F6B9D6AFC
:100250001B6B13F0020F03D00E4BDB6A002B0CDB81
:100260000D4800F0B5F8CDF800803B4632462946EF
:10027000204600F009F900BEFEE74BF6AB6100F046
:100280007DF90028ECD0034B4FF00042DA6202B057
:10029000BDE8F08100ED00E0C414000800BEFEE7F8
:1002A0001EF0040F0CBFEFF30880EFF309807146D6
:1002B000244A10472DE9F04182B004468846084B95
:1002C0005E6B9F6B9D6A074800F082F8CDF8008056
:1002D0003B4632462946204600F0D6F800BEFEE7EF
:1002E00000ED00E0D41400081EF0040F0CBFEFF383
:1002F0000880EFF309807146134A10472DE9F04159
:1003000082B004468846084B5E6B9F6B9D6A074827
:1003100000F05EF8CDF800803B4632462946204684
:1003200000F0B2F800BEFEE700ED00E0E0140008C7
:1003300000BEFEE700BEFEE700BEFEE7704700001D
:100340003F020008B5020008FD02000800BEFEE7FB
:1003500024B50008000000208800002024B5000813
:100360000000000000000000880000202C01002098
:08037000000000000000000085
:10037800FEE7000008B503460C4A12685AB10B4A5A
:100388001068033323F003030344094A934206D851
:10039800064A136008BD054A06491160EFE700F0F8
:1003A800CFFB0C2303604FF0FF30F3E78C000020F5
:1003B800004C00202C01002001230360014B0B603E
:1003C800704700BF040000200FB400B583B004AB31
:1003D80053F8042B01938021064800F0E3FB002822
:1003E80003DD0146034800F037F803B05DF804EB7D
:1003F80004B07047940000202DE9F04385B004460E
:100408000F4643560BB10E461EE0042528462146EA
:10041800ABBE0446384605B0BDE8F08314F9011BAD
:1004280004AA1A4402F8101C0133AB42F6D304AAFA
:100438001344002203F8102C4FF00408E946404604
:100448004946ABBE8046761B002EE3D03546102EBB
:1004580028BF10250023E8E708B5FFF7CDFF08BD42
:1004680008B500F0FDF8024A024B9A6008BD00BFCB
:100478000000000800ED00E008B500F019F908BD1B
:10048800F8B504460D4617461E462748FFF79CFF59
:1004980021682648FFF798FF61682548FFF794FF11
:1004A800A1682448FFF790FFE1682348FFF78CFF15
:1004B80021692248FFF788FF61692148FFF784FF17
:1004C800A1692048FFF780FFE1691F48FFF77CFF1B
:1004D8001E48FFF779FF29461D48FFF775FF1D4C99
:1004E800E16A1D48FFF770FF216B1C48FFF76CFF9E
:1004F800E16B1B48FFF768FF15F0800F0AD115F470
:10050800004F0CD11748FFF75FFF06991648FFF711
:100518005BFFF8BD39461548FFF756FFEFE7314650
:100528001348FFF751FFEDE7A8130008B8130008B8
:10053800C8130008D8130008E8130008F8130008C7
:1005480008140008181400082814000838140008B3
:100558004414000800ED00E0541400086414000876
:1005680074140008A4140008AC14000884140008CB
:100578009414000883691A888A4201D000207047C1
:100588000268033A012A03D80233836101207047C5
:100598000020704782B00023019300932C4A13680F
:1005A80043F4803313602A4B1B6803F40033009331
:1005B800019B01330193009B1BB9019BB3F5A06F0D
:1005C800F1D1234B1B6813F4003F06D0012300939D
:1005D800009B012B04D002B0704700230093F7E77B
:1005E8001C4B1A6842F010021A601A6822F00302C3
:1005F8001A601A6842F002021A60A3F580535A681A
:100608005A605A685A605A6842F480625A605A6856
:1006180022F47C125A605A6842F4E8125A601A6846
:1006280042F080721A600A4B1B6813F0007FFAD000
:10063800074B5A6822F003025A605A6842F00202D5
:100648005A60034B5B6803F00C03082BF9D1C2E72F
:10065800001002400020024008B5FFF79BFF08BDCC
:1006680008B5104B1A6842F001021A6059680E4A20
:100678000A405A601A6822F0847222F480321A60A2
:100688001A6822F480221A605A6822F4FE025A601C
:100698004FF41F029A60FFF7DFFF044B4FF0006230
:1006A8009A6008BD001002400000FFF800ED00E06D
:1006B8001F4B5B6803F00C03042B15D0082B17D0D5
:1006C8001BB11C4B1C4A1A6002E01A4B1A4A1A60EA
:1006D800174B5B68C3F30313184AD35CDAB21549A6
:1006E8000B68D3400B607047124B134A1A60EFE750
:1006F8000F4A53685268C3F38343023312F4803FAE
:100708000AD00B4A526812F4003F0BD00C4A02FB85
:1007180003F3084A1360DBE7094A02FB03F3054ABF
:100728001360D5E7044A02FB03F3024A1360CFE7DC
:10073800001002401C00002000127A000C0000206B
:1007480000093D0010B4012824D018B1022841D076
:1007580010BC7047072910D90F29F9D8A1F1080052
:10076800C0B280000F238340244C216821EA030390
:1007780002FA00F119432160EAE789000F2303FA1E
:1007880001F01F4C236823EA000302FA01F1194320
:100798002160DDE7072910D90F29D9D8A1F108036D
:1007A800DBB29B000F209840164C216821EA00001C
:1007B80002FA03F101432160CAE789000F2303FA13
:1007C80001F0114C236823EA000302FA01F11943EE
:1007D8002160BDE7A1F10D03DBB2022BB8D80839BF
:1007E800C9B289000F2303FA01F0084C236823EAF1
:1007F800000302FA01F119432160A9E70408014046
:1008080000080140040C0140000C014004100140A4
:1008180001281AD010B102282DD070470F293AD8D4
:10082800012A0AD0002A36D1012303FA01F11E4A0F
:10083800136823EA010313607047012303FA01F1E7
:10084800194A13680B43136070470F2923D8012AEC
:1008580009D002BB012303FA01F1144A136823EA01
:10086800010313607047012303FA01F10F4A13686B
:100878000B4313607047A1F10D03DBB2022B0AD8BA
:10088800012A09D03AB9012303FA01F1084A136889
:1008980023EA010313607047012303FA01F1044AB4
:1008A80013680B43136070470C0801400C0C01409F
:1008B8000C100140034B4FF480321A6004330122BC
:1008C8001A607047001002401F291CD801280BD05D
:1008D80010B1022810D07047012303FA01F10A4A27
:1008E80013680B4313607047012303FA01F1074AA9
:1008F80013680B4313607047012303FA01F1044A9C
:1009080013680B4313607047141002401C10024018
:1009180018100240024B40F247321A60704700BF7D
:100928000030014038B505460C46002211461046F5
:10093800FFF76EFF074BDD60064B9B6813F0800FD7
:10094800FAD1044BDB682370012200210846FFF727
:100958005FFF38BD00300140014B00221A6070472C
:1009680010E000E0094B58601A6842F001021A6072
:10097800064B1B6813F4803FFAD0044B1A6842F008
:1009880001021A6000225A609A60704710E000E085
:1009980008B50A4B1B785BB9094B1A6822F00202AA
:1009A8001A601A6842F001021A6000225A609A60BE
:1009B800044B1B689847024B1B6808BD18010020B0
:1009C80010E000E01401002010B582B004460122B6
:1009D80002210020FFF71CFF0DF107012046FFF759
:1009E800A1FF02B010BD10B582B00446002202215A
:1009F8001046FFF70DFF0DF107012046FFF792FFA4
:100A080002B010BD08B5012211460020FFF700FF13
:100A18006420FFF7A7FF002201211046FFF7F8FE28
:100A28000120FFF79FFF012211460020FFF7F0FE8B
:100A38006420FFF797FF002201211046FFF7E8FE28
:100A48006420FFF78FFF012211460020FFF7E0FE28
:100A58000948FFF787FF1120FFF7C5FF0748FFF791
:100A680081FF3A20FFF7BFFF0520FFF7ADFF2920E0
:100A7800FFF7B9FF08BD00BFC0D40100F04902006C
:100A880038B505462A20FFF7AEFF0020FFF79CFF88
:100A98000020FFF799FF0020FFF796FF7F20FFF760
:100AA80093FF2B20FFF79FFF0020FFF78DFF00200B
:100AB800FFF78AFF0020FFF787FF9F20FFF784FFDB
:100AC8002C20FFF790FF00240AE035F81400000AF4
:100AD800FFF77AFF15F81400FFF776FF0134A4B288
:100AE800B4F5A04FF1D338BD08B5FFF7E3FE0221F6
:100AF8000846FFF7E9FE0C210220FFF7E5FE022277
:100B080001210020FFF71EFE022211460020FFF7F8
:100B180019FE092205210020FFF714FE09220721EA
:100B28000020FFF70FFEFFF717FFFFF7F3FEFFF7B1
:100B380069FF0248FFF7A4FFFEE700BFF0140008B2
:100B4800014B1868704700BF2000002030B5141E04
:100B580005469BB0184605DA8B234FF0FF302B6013
:100B68001BB030BD4FF40273ADF80C300CBF2346F8
:100B780004F1FF33029305934FF6FF73009104913C
:100B8800ADF80E3002461E9B6946284600F072F802
:100B9800431CBCBF8B232B60002CE1D00022009BA0
:100BA8001A70DDE707B5009313460A460146034865
:100BB8000068FFF7CBFF03B05DF804FB20000020BE
:100BC8002DE9F0478E6882469E420C46904699462B
:100BD80037D88A8912F4906F31D0022325680969C1
:100BE8006F1A656905EB450595FBF3F509F10103F6
:100BF8003B449D4238BF1D46530530D5294600F079
:100C080035FB064650B90C234FF0FF30CAF80030C8
:100C1800A38943F04003A381BDE8F0873A462169E0
:100C280000F0B4FAA38923F4906343F08003A3810E
:100C380026613E4426604E466561ED1BA5604E4523
:100C480000D94E4632464146206800F0AAFAA36809
:100C580000209B1BA36023681E442660DCE72A460D
:100C680000F05EFB06460028E2D12169504600F0FC
:100C7800B1FAC8E72DE9F04F9DB003938B89804600
:100C88001D060C4616460FD50B696BB9402100F0BE
:100C9800EDFA2060206128B90C23C8F800304FF025
:100CA800FF30C7E0402363610023099320238DF8B8
:100CB800293030234FF0010B8DF82A3037463D4656
:100CC80015F8013B0BB1252B3ED1B7EB060A0BD02B
:100CD8005346324621464046FFF772FF013000F086
:100CE800A480099B534409933B78002B00F09D8016
:100CF80000234FF0FF32CDE90523049307938DF8C5
:100D080053301A932F46052217F8011B4F4800F05D
:100D18002FFA049BD0B9D90644BF20228DF853205E
:100D28001A0744BF2B228DF853202A782A2A15D077
:100D38002F4600200A25079A394611F8013B303B17
:100D4800092B4DD9B8B10FE02F46B8E73F4A3D46C9
:100D5800801A0BFA00F018430490D3E7039A111D88
:100D680012680391002A01DB079204E0524243F023
:100D78000203079204933B782E2B0CD17B782A2B05
:100D880033D1039B02371A1D1B680392002BB8BF8F
:100D98004FF0FF3305932E4D03223978284600F093
:100DA800E7F938B14023401B03FA00F0049B0137F0
:100DB800034304933978062226487E1C8DF82810B0
:100DC80000F0D6F9002838D0234B13BB039B073318
:100DD80023F0070308330393099B4B4409936DE7FA
:100DE80005FB023201200F46A6E700230A25194613
:100DF80001370593384610F8012B303A092A03D9F0
:100E0800002BC8D00591C6E705FB01210123074641
:100E1800F0E703AB00932246104B04A94046AFF31A
:100E28000080B0F1FF3F8146D6D1A3895B063FF52C
:100E380036AF09981DB0BDE8F08F03AB009322468A
:100E4800064B04A9404600F081F8EAE7F0B4000830
:100E5800F6B40008FAB4000800000000C90B000846
:100E68002DE9F04791461F468A680B69064693426A
:100E7800B8BF1346C9F8003091F843200C46DDF896
:100E8800208012B10133C9F800302368990642BFA7
:100E9800D9F800300233C9F80030256815F0060586
:100EA80007D104F1190AE368D9F800209B1AAB426C
:100EB80029DC94F843302268003318BF01239206D6
:100EC8002ED404F1430239463046C047013021D0C0
:100ED8002368E56803F00603042B18BF0025D9F83A
:100EE80000204FF0000908BFAD1AA368226908BFA7
:100EF80025EAE5759342C4BF9B1AED181A344D458F
:100F08001AD1002008E00123524639463046C0472E
:100F1800013003D14FF0FF30BDE8F0870135C2E75B
:100F28003020E11881F843005A1C94F845102244F7
:100F3800023382F84310C4E701232246394630467B
:100F4800C0470130E6D009F10109D8E72DE9F0439F
:100F580001F1430C0C46097E85B06E2917460646FA
:100F680098460C9A00F0B38022D8632936D00AD864
:100F7800002900F0B980582900F0838004F1420567
:100F880084F8421032E0642901D06929F6D120683A
:100F98001368050603F104012AD51B681160002BAC
:100FA80003DA2D225B4284F843206F480A2239E095
:100FB800732900F09D8008D86F2920D07029DDD1D1
:100FC800236843F02003236003E0752917D07829AC
:100FD800D4D17823654884F8453055E0136804F186
:100FE8004205191D1B68116084F8423001238CE00A
:100FF8001B6810F0400F116018BF1BB2CFE71368D1
:101008002568181D1060280601D51B6802E06806CF
:10101800FBD51B886F2914BF0A22082252480021D9
:1010280084F843106568002DA560C0F2958021689A
:1010380021F004012160002B3DD1002D40F08E806D
:101048006546082A0BD12368DB0708D5236962683F
:101058009A42DEBF302305F8013C05F1FF35ACEBC1
:1010680005032361CDF800803B4603AA214630469C
:10107800FFF7F6FE01304DD14FF0FF3005B0BDE867
:10108800F083394884F84510136821681D1D1B68D2
:1010980015600A060BD5CA0744BF41F0200121603C
:1010A8001BB9226822F0200222601022B7E74D0601
:1010B80048BF9BB2EFE76546B3FBF2F102FB113381
:1010C800C35C05F8013D0B460029F5D1B9E7136863
:1010D8002568181D6169106028061B6801D519600C
:1010E80002E06A06FBD51980002365462361B9E74B
:1010F8001368191D11601D6862680021284600F0F8
:1011080037F808B1401B606063682361002384F8E6
:101118004330A7E723692A4639463046C04701309D
:10112800AAD023689B0713D4E068039B9842B8BFF2
:101138001846A3E701234A4639463046C0470130DE
:101148009AD00135E368039A9B1AAB42F2DCEBE7CD
:10115800002504F11909F5E7002BACD1037804F157
:10116800420584F842306CE701B5000812B5000862
:1011780010B5C9B202449042034601D1002303E0EE
:101188001C7801308C42F6D1184610BD10B5431EAC
:101198000A44914200D110BD11F8014B03F8014FE8
:1011A800F7E7884210B501EB020307D8421E9942BF
:1011B8000AD011F8014B02F8014FF8E78342F5D93C
:1011C8008118D21AD34200D110BD13F8014D01F88D
:1011D800014DF7E738B50546002943D051F8043CDE
:1011E8000C1F002BB8BFE41800F0D0F81E4A136893
:1011F800104633B9636014602846BDE8384000F0F3
:10120800C6B8A3420BD921686218934201BF1A6875
:101218005B685218226063600460EDE713465A6801
:101228000AB1A242FAD919685818A0420BD120680D
:101238000144581882421960DED11068526801448E
:1012480019605A60D8E702D90C232B60D4E72068CC
:1012580021188A4201BF116852680918216062602A
:101268005C60C9E738BD00BF1C01002070B5CD1C0B
:1012780025F0030508350C2D38BF0C25002D064632
:1012880001DBA94203D90C233360002070BD00F0B4
:101298007DF8214A1468214691B9204C23681BB96E
:1012A800304600F063F820602946304600F05EF8CA
:1012B800431C24D10C233046336000F068F8E4E77F
:1012C8000B685B1B18D40B2B0FD90B60CC18CD50B7
:1012D800304600F05CF804F10B00231D20F00700F5
:1012E800C31AD3D05A42E250D0E74B688C4216BF9B
:1012F800636013600C46EBE70C464968CCE7C41CF6
:1013080024F00304A04205D0211A304600F02EF83C
:101318000130CFD02560DBE71C0100202001002030
:10132800F8B5074614460E4621B9BDE8F8401146FF
:10133800FFF79CBF22B9FFF74DFF25462846F8BDA9
:1013480000F026F8A0420FD221463846FFF78EFF5C
:1013580005460028F2D031462246FFF717FF3146EE
:101368003846FFF737FFE9E73546E7E738B50023A2
:10137800054C054608462360FEF7FCFF431C02D1D6
:10138800236803B12B6038BD2401002070477047E3
:1013980051F8043C181F002BBCBF0B58C0187047ED
:1013A800537461636B206672616D653A0A000000D0
:1013B800205230203D2020253038580A00000000F7
:1013C800205231203D2020253038580A00000000E6
:1013D800205232203D2020253038580A00000000D5
:1013E800205233203D2020253038580A00000000C4
:1013F80020523132203D20253038580A00000000A4
:10140800204C52203D2020253038580A000000008A
:10141800205043203D2020253038580A0000000085
:1014280020505352203D20253038580A0000000033
:101438004653522F4641523A0A0000002043465371
:1014480052203D2020253038580A000020484653B5
:1014580052203D2020253038580A000020444653A9
:1014680052203D2020253038580A0000204146539C
:1014780052203D2020253038580A0000204D4D4686
:101488004152203D20253038580A0000204246416C
:1014980052203D2020253038580A00004D697363DA
:1014A8000A000000204C522F4558435F52455455BE
:1014B800524E3D20253038580A0000005B486172C2
:1014C800644661756C745D0A000000005B427573C8
:1014D8004661756C745D0A005B55736167654661AA
:1014E800756C745D0A00000039D697C597C597CD0D
:1014F80036C576CD77D5B8DD77D516CD94BC16C56B
:1015080058CD57CDFADDD5B4F3AB37D512AC54B4BA
:1015180016C5F6CC33B412B433BC54C454C433BC6B
:1015280053BC12ACD19B73AC52A452A452A434AD98
:10153800719C549C78A4DAA4768C98ACFAD33AE3DC
:101548008F805492B582346A7019DC7C3C8539747A
:10155800F7723169D7AA17B36D58B381FCBB5CA485
:101568007974DA64143BEF08D0104F2030501070B3
:101578000F708F682C386B18AB08CC08CC00AC0007
:101588008D086D104D202E286E206D204D202D20A9
:101598004D284D284D282D204D186D108D08AC0074
:1015A800CC08CC108B104A10470889108A086C1890
:1015B8004E280D284C204C186C08ED10AB00CB00C1
:1015C800ED00CF2918A5B2ACB49C939CB39C72943F
:1015D80072947294F49CD49CF4A4B394B394F49C41
:1015E800F49CF49CD39CD39C9BE6D7C597C519DE85
:1015F80097CD76CD56CD56CD36CDB4BCD5C4B5BC79
:1016080037CD78CDB5B474ACF2AB33B412ACD5C425
:1016180016CD33AC12AC53BC53BC12B470A333BC5C
:10162800B1A3B5C4F5C432A4129C53A494ACD4A4F9
:10163800729476A41894388C5784FBB43FED1EF44A
:10164800B491CF58378B598BB96BFC84386C934A5B
:10165800B68259BB1DE4D3918E5818AB5DC45C9C0F
:101668005A74763B4E010F11D0104F203048506805
:101678007070AF602B286B18AB08AC00CC00AD08BD
:10168800AD086D104D182D204D186D204D202C20C3
:101698004D206E286E304D204D186D108D08AC0011
:1016A800CC08CC088B104A10470868088A084C10E8
:1016B8006E282D284C208D108C08CD08CB08EC08FE
:1016C800CC00EC10F483D3AC939C939CD4A4B39C2F
:1016D800D4A4D39CF4A4B39CF4A4D49CF4A4F5A4FB
:1016E80015A5D49CD39CD39C39D6F8CD35B5B7CDA8
:1016F80076C519E6B7D5D4BC32ACD4BCD8DDB9DDD3
:1017080074B494B437CD16C553B4B5BCB4BC94BC4A
:1017180032AC33B4F2ABD5CC74C4B1AB2F9B94C408
:1017280012AC94B4B4B4B5BCF6B475A495A4939CA7
:10173800B59CB8A4188C3984B984799479A3FED35C
:101748009CBBDBAB9A8B555A776B7763523AF56A39
:10175800BDD4FCE35AD36E60358A3CBC7CBC5B9C30
:101768005753B0090E01CE088F184F202F389058C4
:10177800D160AF480B188B10AC08CC00CC00CD085A
:10178800AD088D104D184D184C106D186D182C188B
:101798004D208E288E306E282D204D188D10AC08C7
:1017A800CC08AC088B086A1048084808CB106D10A4
:1017B8004E202D204C108D08AD00CC08CC080D1102
:1017C800CD086B00F05A15B5939CB39CD49CB39C80
:1017D800F4A4F4A4F4A4B39CF4A4F5A415A5F49C6F
:1017E80035A5D39CD39CF4A418D6D7CD34BDB7CD9A
:1017F80059E6D8DD76D5D3BC15CDB3BCF5C4D5C470
:10180800D5BC77D5D5BCB4BC32AC53B453B4F1A372
:10181800B4BC56CD12ACB9E5B5C4D1AB12B412B450
:1018280094BCF5C4B4BC94B4D6ACF7B499C557B558
:1018380037B5B8A4F8837A7CDA74597C8D30157A78
:10184800778271418D180B006E31977378737CB471
:101858003CD479D314AA5179FBB35CBC5BAC1A8C29
:10186800511951095111CE084F204F286F308F3828
:10187800F040CE302B108C08AC08CC08AD08AD0871
:10188800AD088D106D186D186D088D108D104C10E9
:101898004C186D206E286E282D204D188D10AC0820
:1018A800AC08AC08AB088B1048086908AC10AD1838
:1018B8006E184D106C08AD00CD00ED08CC10CC10A2
:1018C800AD108B082E4A16ADB49CD4A4B39C939C3F
:1018D800D4A4F4A4D4A4D4A4D4A4F5A4F5A473944F
:1018E800F5A4B39CD4A414AD75BDF7D514B5D7D55C
:1018F80018DE76CDD3BCD3BC15C5D4C456D5B8DD57
:1019080056CDF5C453AC53B4F1A332ACF1A3AC7AC1
:1019180015CDB8DDF5C436D573BC6F9B12B4B0A332
:1019280033B432AC94B433AC949C77BDF9CD15ADD7
:10193800F6A47794397C596CFA7458741A8C3CACB8
:10194800387B0A00AC088C08AF417B9C7CA47CBC2B
:1019580017B399CB5079179B7DBC1BAC1BA4F349DB
:10196800AF083111F010D0182F3870388F308E2012
:10197800EF28AD182B088C10AD08AD08AD08AD08E0
:101988008D088D108D108D188D108D086D086D08BF
:101998006C104C184D206D202D184D186D108D08A9
:1019A800AC08AC08AC08AC1028086A108B088D107D
:1019B8006E108D10AC08CD00CD00CD08AC108C0891
:1019C800AE106C106C31B5A4F5A4F5ACD4A4B3A4D6
:1019D800D4A4D4A4D4A4F5ACF5AC15ADD5A4539433
:1019E800D4A4939CD4A4F4AC34BDF7D5B2ACF3B46E
:1019F800F3B414BDD3BCF4C4B3BC35CD76D5F8E587
:101A0800F4C473B436CD73B4F4C473B48F9B8F9B92
:101A180015CD52B473BC93BCD1AB73BC53BC32B4B8
:101A280094BC73B4B4B412A4D4A457BDB8C556BDFD
:101A380098BD1AAD5984D75B385C3874FDA4DEB400
:101A48009FBD7663AB008B004E415EC5BCB4169358
:101A580098B377AB126A3AA47CB41BB4757A4D205C
:101A6800CF18D010D1209128305891508F308E182F
:101A78000F198D084C088D10AD10AD08AD088D08F4
:101A88006D106D106D108D108E186D106D088D080D
:101A98008C084C084D106D186D186D106D088D0868
:101AA8008C088C10AC10AC102908CB180D194B0001
:101AB8006D08AE10AD08AC08AD08AC088C108C10E1
:101AC8008D104C10CA20559CD5A4F4A4D4A4F4AC11
:101AD800F4A4D4A4B3A4F4AC15AD15ADF5AC949CA2
:101AE800F5ACD4A4F4ACF5ACD7CD34BDD3B471A463
:101AF80055C572AC35C5F4BCF4C415CD35CD73B439
:101B080073B4D4C4D4C4F5CC11ACB3BC11AC73BC9D
:101B180072B452B473BC11AC11AC94C4B0A316CD5A
:101B280078DDD5C432AC12A494A4B5AC16B574A4AF
:101B380095A437943663D54A154BD87B5039766AC5
:101B4800BA837B7C8F118C0090491DBD7793F58AF1
:101B5800BCC4F472756BBA9C3BB45AB34F48B038E6
:101B68008E10D018B2309340317071588F30CE102B
:101B78002F118D084C086D188E188D108D088D103A
:101B88006D106D188D188D188E206D186D088D08C4
:101B98008D086C086C106D108D108D086D088C0800
:101BA8008C106C108C188C182A086E31B34A6B0094
:101BB8008D088D106C108C108D108C108C10AD1041
:101BC8008D106C18AB28F59BD5A4B4A4B4A415AD9E
:101BD800D4A4D4A4B3A4F4AC15ADF5ACF5ACD5AC91
:101BE800F5ACD5ACF5ACF5AC71A4B2ACF3B455C555
:101BF80035BD76C596CDB3B456CD36CDB8DDF9E54D
:101C080056D593BCB4C473BC8F9B11AC52B4F0A32B
:101C180011AC93C4B4C473BC8FA352BC53B478DD65
:101C2800F6CC37CDB5BC53B433A433A4B5B4F39BC9
:101C3800F49BF793D2418D10D2419DAC11490D28E8
:101C48006E18F652D121AD00EE40DCBC18A439ACB8
:101C58005783F4525874F77BD9B394917160D1408B
:101C680010298F205130B558528071588F28EE10A6
:101C780070118D082C104D206D188D108E108E103F
:101C88008E206E288E288E286F286E206D106D0885
:101C98006C086D106D106C10AD108D086C086C0818
:101CA8006C106C106C108C1829080F3A5884AB080B
:101CB8008D106D184C206D286D208D188C108C108F
:101CC8008D108D208B307493F5AC949C939C15AD3E
:101CD800D4A4B4A4D4A4F5AC15B5F5ACF5ACF5AC66
:101CE800B4AC94A494A4B4A4D3B4F4BCB7CD35BD17
:101CF800B7CD5AE6B7D597CD15C5D8DD3AE6D9E5BB
:101D0800D5C4B4C4F1ABF1AB72B4B3BCF0A311AC9D
:101D180052BC93BCD0AB11B4F1ABD4C432B416CD21
:101D2800B5C494BC74B474B4D1A333AC74B413AC58
:101D380097BC758B2C188E204D309AAB7792B04893
:101D4800B249565B7332AC000B28D89B5ECDF9A321
:101D5800D56A5A7CD763F88B17ABB1889270D14893
:101D6800AF286F205138945872787050EF2870114E
:101D78004F098D084D182D186D188E10AE108E183D
:101D88006E206E306E388E386F304E284D186D10BC
:101D98006C104C184C184C186D108D088D088C0858
:101DA8004C106C108C186C104A08CE31D994AF3195
:101DB8004C102C20AE406D404D304D208C108C08BE
:101DC8006C088D208C30559B16AD949CD4A4F5AC32
:101DD80015ADB4A493A4F5AC16B5D5ACF5ACF6B472
:101DE80037BDF5ACD5ACD5AC35BDB6CD76C5B7CD20
:101DF800DCF697CD97C5B8CD97CDB8D536C5F5C41F
:101E080015C573B473BC15CD72BC72B4CB826E9B0E
:101E180052BC31B473C48FA3F1AB36D573BCF5CCC7
:101E280077D574BC94BCB1A393C4F1ABB0A3B0A3F1
:101E380075BCF6A3B049EE380B38B391B8B2DCBB29
:101E4800FEBCFC9C0C118A000A28947AFDC45BB481
:101E5800B893FDAC398CB58253899290F380B14028
:101E6800AF289028714092509160B040EF18B0119F
:101E78006F098D002C106E206E188E10AE088E180B
:101E88006E286F384F404E406F306E286D186D10B9
:101E98004D184D202C280C204D186D108D088D10D4
:101EA8006C106C108C108C106A08504AD894B2527E
:101EB8004B186D306E484E504E484D288C10AC086B
:101EC8006C088D206B30D38A16ADD5A4D4A4F5AC9C
:101ED80015AD15B5F5ACF5B4D5ACB4ACD5B416B5EF
:101EE80037BDD5ACB4A494A414BDB7CDD7D5B3AC85
:101EF800BBEE19D615B57BE619D6D8D577CD93B4F0
:101F0800B7D536CD73B456D5B3BC31ACCB828FA31D
:101F180093C4D0AB93C46F9B52B493BCF1A3D5C404
:101F280073BC53B412AC53B472BCAFA3F0AB11B4CE
:101F380033B45ACD7EC57CB4B5A2309197BAF8AA0D
:101F48003362AE310B118A000A3032723372169B3B
:101F58005CCC1AB417936F585078F3983379AF3034
:101F6800D020912891389138904011312F112E01AD
:101F7800D009CD084D106D188E10AD08AD088E181B
:101F88006F306F404F402E404E286E206D186D18F0
:101F98006D286E382D400D302C204C108D108D1072
:101FA8006C106C10AC08CC086908D152D89C336B03
:101FB8002B184D384D504E586F504D308D10CD0860
:101FC8008C086C184B28F16916AD16AD16AD16AD18
:101FD80015AD35B535B515B5F5B4D5ACD5B4F5AC45
:101FE80016B5D5ACF5AC15B555C514BD71A4B3A4DB
:101FF8005DFFFCEE7BDE7BDEB8C53ADEF9D5F5B4D5
:1020080036C5B3B472B497D5D3C4CFA38E9BCFA330
:1020180031B46FA38FA3B0A373BCF1A3B4BC16CD26
:10202800B4BC53B412ACB5BCB3C432B4B0AB32C454
:1020380033BCD9BC1DB51FCDD6AA39DB9BDB1169D2
:10204800091049086A008B004938F169505975929E
:10205800BACBBACB5ABBD699938834911159CF20B1
:10206800F01890209028AF286F288E102F09D009DB
:102078004E016C006C106C10AD10AD088D088E1000
:102088006E286F384F402E386E206E186D186D18F8
:102098006E306F504F582E480C302C186C108D1025
:1020A8006C108C08AD08CD08AA08115BF79CD162AA
:1020B80009182D304E504E588F504E308D18CD087F
:1020C8008C088D184B202D41B59C16ADF6AC36B555
:1020D800F5ACB4A4D4AC15B5F5ACF5B457BD57BD43
:1020E80077C516B515B5F5ACB6CD75C514B596C595
:1020F80039D6F8CD1DEF5AD676BD7ADEF4AC36BDAA
:10210800B4B48F9331A472B4B3BCF0A372B4F0AB7F
:10211800F0ABCFA32D9372B452B451AC72AC73B47C
:1021280053AC53AC94B4D5C4B9E512AC709B94C409
:10213800F3AB7CC55EB5999351712E7073915AA318
:10214800B66A4B088C088C08EB483593B16918BB04
:102158001CF47ADBB4915170D4901379D0383019CB
:102168003111D118D120CF188F20AF182F09ED00C9
:102178004E098C00AD188D10AD08CD08AD086D1056
:102188004E204E304E304E306E208E186D106D2021
:102198006E386F584F602E504D384C204C106C10D4
:1021A8006C108C10AD08CC000B11926B17A5D16A7E
:1021B80008104D306E484D486E406E28AE18AD0878
:1021C8006C08AD188C18AB20D28316ADF6AC36B5BA
:1021D800F5ACB4A4D4AC15B5F5B416B577BD77C5D0
:1021E80098C536B5F5ACD4AC95C5F3B475C534B55A
:1021F800F8CD1CEFBBDEDBDE5AD69BDEF4AC76BD39
:1022080035BDD3B4D3B431A492B4F4BC76D5F4C4F8
:1022180052B452B411AC15CDB3BCD3BC72ACD4BC5F
:1022280015BD36C574B477D5B9DDD2A313AC17DDA7
:10223800B3A33BBDBC94F3517AB38F704F582E3083
:102248009239CD108C082C006C51BABC9492BADB30
:102258009BF3D4A94F60B168D378F3601129B21108
:10226800B21152191119CF106F208F18CE105019B2
:102278000E198C086C108C10AD08CD08AD086D10C7
:102288004D184E206E206E206E186D106D104D206A
:102298006E404F602F682E586E406D206C108C1069
:1022A8006C108D10AD10AC086C19147C17AD9383AD
:1022B80009186E306E384D304E306F208E108D08F4
:1022C8006D10AD18AC108A08EE6A17AD16ADF6ACF5
:1022D80015AD16B515B5D4ACF5B4F5AC16B516B53F
:1022E80036B515AD15AD15AD95C5B6CDB6CD18CE6F
:1022F800FBEEDBE659CEDBDE59CE18C618CE76BD2E
:1023080035BDB6CD14BD14BD109C92ACD3BCF4C47D
:1023180051B4F0AB11AC52ACB7D5F4BCF4B4D4B4EE
:1023280036C5B4B416C55BEE16C533A433AC95C434
:10233800B6C45BB57A7C9C947DBCB6A24E482D2071
:102348008D08CD086B006D088C49B59BD7C3DAEBB7
:10235800F5C1F1806F50B47154717461732913120F
:10236800130A9211F010D0086F300D1851395C948F
:10237800EE206C184B10CD18AC08CD08AD088D10A8
:102388006D186E188E108E106E186D104D106D2011
:102398006E404E582E684E584D386D188C108C1063
:1023A8006C108D18AD188C088C19758C17B598ACF5
:1023B800AC284C206D284C206E206F186E108D10A4
:1023C8008D10AD18ED10CB00EB49F6ACF6ACD5A4EA
:1023D80015AD36B5F5ACD4ACB4A4B4A4F5ACF5AC35
:1023E80016B515AD35AD15ADB6CDFBEEBAE679DE51
:1023F800D7C596BDFCE6DBDE59CEF8C5FCE679DE2E
:1024080059DEB6CDB2B4F3BCF3B451AC51ACF4C49C
:10241800D3C472B493B451ACB3B4D3B4B3ACF8D599
:10242800F5BC52A45BEEBCFE52AC32A4D5BC74BC65
:10243800D6C47AB55453313AD161B59A7582B1414F
:10244800CC08CC00AC080B002B39D59BF7C3B5CA18
:10245800D19890685261357277823772D529350ADA
:10246800530A9111AF00D1084F308F30B351B76A7A
:10247800CF302B186C188C10AC08CD08AD108D100F
:102488008E108E10AE10AE088E186D186D106D205F
:102498006E402E580E602E502C306C188C088C1004
:1024A8006C108D188D186C108C19968C37B55AC510
:1024B8006F410B108D206D186E186F106E088E10FE
:1024C8008E188D10ED080B016939D6A4F6AC16AD3F
:1024D80057B536B536B577BD16B5F5ACD5AC94A4B9
:1024E800D4A4F5AC56B556B538E658E6D6D514B5E5
:1024F80014B51CEF1CEF7AD638C69AD6BADE59D670
:10250800BAE6B7CDB3B492ACCFAB30B492BCB3C4D7
:1025180071B430AC71B492B414BD14BD56C5FCF698
:1025280077BD57BD9CDEB8C533AC94B4F8E573AC41
:10253800B5A45B9D3A74FB8B3EBCF79A778B4C2114
:102548008900AB088B08EC08AD2979AC98BB3392AD
:10255800326A924A3553DA8BFBABD993B332730A9A
:10256800F401B1106F282B300D682E780E708F682B
:102578008D402B10AD108D08AE08CE08AD088D101B
:102588006D186D208C208C18AD08AD10AD108D1015
:102598008E108E186E284E302D204C10AD08AD10C0
:1025A8004C106D28AF302C184C319AC55ADE7BE69A
:1025B8008C396C088E008E088D186D208D18AD082A
:1025C800ED00ED00AC08AD186C4057A4B7B5B5AD3B
:1025D80075BD98D557D5B8DD76C577CDF6BCD6BCD0
:1025E80015B514AD75BD39DE34BD17DE92AC34BDFA
:1025F800B7CDB7C518CE59D67AD618C638CEF7C5CE
:1026080096C534BDF4B4B3B410AC10ACF3C471B413
:10261800EFA351AC10A4F09B10A492AC56C5BBEE2E
:102628009BE61DEFDDE61AD616BD56C515BDF9D5D4
:10263800BABDB98CF029D349D892BAABBCAC2C1925
:10264800CA00EC088B008B008C29389C56A3D59ABD
:10265800F57A934AF96B7D9C3EBCBA9B375BF62AA8
:1026680052014F10F048CE582D706F80AF88CF7050
:102678004C380B108C106D08AE08AE08AE086E1002
:102688004E204D284D204C18AD10AD108D108D08E2
:102698008D088E104E202D282D206C108C08AD1022
:1026A8006C188E28AF302C184D397EE67BEEBDF6BF
:1026B800AD412B086E088E102D184D284D206D1039
:1026C800AD08CC08AD10AD180A389493F8C516BEFD
:1026D800F7CD5BEE1AEEF8DDB7CDF9D5DAD5D9D559
:1026E80019D638D618D659E613BD13BDD3B496C536
:1026F80018D6F4AC5AD659CEBBDEFCDEBBDE96BD8E
:1027080055B596C576C5B2AC30A4D3B4CF936D8B0E
:10271800B2B4B2B471AC10A4AF9372A45AE63ADE64
:10272800BCE677BD56B57CDE97C597BD55B556B5A1
:1027380079B5F252AC10EF38FCBB9AABB149CC0872
:10274800EC08AB00AB008A002929F68BF89BF9A3AB
:10275800F993197C7C847F9CD57133617239921905
:10276800D0086F28D0686E784E802D806E80CF702C
:102778004C402B188C18AD108E08AE088E104E18D1
:102788004F284F304E284D188D108D108D108D0804
:102798008D086D104D182D184D186C108C08AD1043
:1027A8006C188E28AF282C184D39DFF63AE6DDF67E
:1027B800ED510A088E184E202D304E386E384D20B7
:1027C8006C108C088C108D184C48D2827BDEDADEB7
:1027D8009AE69CF69CF69AEE9AE6DCEE7CE63BDE00
:1027E8007ADEDBE6DBEEBBEE95CD51A4B2ACD7CDFD
:1027F8009AE696BD9ADE56B57AD659CE7AD67AD664
:10280800F8CD14ADD3ACD3AC719CF3AC0F94AE8BB4
:10281800B6CD34BDCF9372ACD3B414BDB7CDF5B437
:10282800DCEE36B5B4A43AD65AD697BD56ADB8B58F
:1028380018A5F2620D311472979ADBB30F31AC0010
:10284800CD008C008B00AA004939F583766B9B9CE0
:102858005A9C9C9CBA73986A9158B1681251122973
:102868009020904870782F906F902E808F80AE685F
:102878000B304C206C186D108E10AF106F184F284D
:102888004F3870486F404E286D186D188D108D08A0
:102898008D106D106D186D186C108C10AD088D10A2
:1028A8004C106D20AE284D186D499FF63AEEBDF6D6
:1028B800B06A09108F202E282E406F506F504E306E
:1028C8004C186C106C106D184D50CE697CE65CF796
:1028D800DBEE9BF6DCFEFBF6BAE6FCEEDCEE7BE616
:1028E800BBE6FBEEBAEE7AE634BD55BD71A438DE20
:1028F80018D614B597C5F8C576B5D8BD9BD69AD65F
:1029080018CED7C5D7CD719C7194308C519413AD26
:1029180034B51094CF93B3B4F4B4F4B456C536BDFB
:1029280056BDD9CDBCE698C519D656B5F49CB8B5F0
:10293800F8AC79A490592C504E584D486D20AD08EC
:10294800CE088D088B086900D0723884F1297B94F1
:10295800DDB41A9CB772F248F370D2781369B130BB
:102968002F28B168929810982F78D188B491F06088
:102978000A206D28AE208E188E108E106E182E30FC
:102988004F50905890506E404D206D188D108D0806
:102998006D106D186D188D188C10CD10CD10AD10F0
:1029A8006C106D18AE206D20EE59BFF6DDFEDDFE11
:1029B80097ACAB284E202E300E404F584F584E380B
:1029C8004D206C188C108D180C48CC50DAD53DF77A
:1029D800BBEEBBF6DBF679DEB9DEDBE6FCEEDCEE61
:1029E800FCEEFBEEBBEE7AEE96C5D3AC35BD59DEF8
:1029F800D4ACF5B4D8CD56B5B39C56B5F8C518C601
:102A0800B7BD35AD55B5D3A40F7CD294D29CF3A4F1
:102A1800719492A476C592ACF09315BD15BDD4B44B
:102A280036BD5ADE1DF777BD1AD636B536ADB9BDF7
:102A380039BD79B4B9BBB7B22E604E486E286D085F
:102A48006D086C104A088A08569C397C50197973AD
:102A5800DDC4DAB3F4719058D280B28091587038DE
:102A68003359B599D4A011901379D689778A93618F
:102A78000D206E208E208E18AE108E106E202E40E7
:102A88004F586F686F606E504E286E188D108D10FD
:102A98006D184D204C206C18AD08ED10CD08AD1008
:102AA8008D108D10AE206E18B06AFFFE1EFFDDF689
:102AB800DFF6F0510C182E300E402F584F504E387C
:102AC8006D288D188C10AD104D486B40B7B43EFF83
:102AD800DCF6FBF6DBF699E61BEF1BE7FCEEFCEEFB
:102AE800FCEEFBEEFBF6FCFED7CD96C5B7CDB3AC3E
:102AF80072A4F4B476BD3AD697BDB7BD15A535A571
:102B0800F8C555ADD39C5194928C7184718CF3A403
:102B1800F4ACD3AC319C52A452A415BD15BD15BD5F
:102B2800D8CDD9CD3AD6D9C599CD98C557B536B5EA
:102B3800D8B4BACCDACBB7B252814D400B10CE180C
:102B48006D106D18AC184908D483976B3219B449C5
:102B580017A3F7B2906850687078F280F25033414A
:102B68001572D591B3903380D140F140F138F028F7
:102B78002D106E184E188E18AE108E104E204E4026
:102B88004F604F704E684D586F306E186D108D182D
:102B98006E284D304D286C18AC08ED08CD08AD08EE
:102BA8008D088D10AE186D1873833FFFFDF6FDF686
:102BB8007FFFB1620B182D302E384E484E404D30F5
:102BC8008D208C108C10AC108E486B38B4933FFF5E
:102BD800FCF61BF7FBF63BF7FAE6FBE61CEF5DF7A6
:102BE8001CEFFBEEDBEEDCF6D7CD96C535BD97CDF9
:102BF80019D6D8CD77C556BD97BD7AD619C656AD64
:102C080015A5D49CF4A4318CF494B6ADB39435A531
:102C180034ADD3AC92A493AC19DEB7D5D4B477C590
:102C280019D6F9CDF5ACB8C579C598C5D8C5B4A439
:102C380095AC99CC58BB7AC3F4810B208C104B000F
:102C48008D186C104B106A08516BB86B1219F2484A
:102C5800738993A10D609278B178D1585341154288
:102C68003562D381B5917781922971210F09EF08D7
:102C78004D088E186E188E10AE088E086E184F40CC
:102C88004F604F682F684E588F306E186D106E2049
:102C98008E386E484E406D208C08ED08AC008D08CB
:102CA800AD088D108D104C10148C5FF73DF73DF773
:102CB800BDE64F522A186D202D282D304D286C2046
:102CC8008C108C088C08AD108E30CD38748B1FFF9B
:102CD8009BEEDAEE99E6B9E6B9E69ADEDBE61CEF9A
:102CE800FBEEDAE6BBE6DBEEF4B455BD97CDF8D5DE
:102CF8005AE619D67AE69BE63AD697B59BD6D8BD5A
:102D0800D8BD55ADF4A4D8BD76AD76AD96B5B7BDF2
:102D1800F8CD97C576C515BDD4B4B4B4F5BCF9D50E
:102D28009BE619D677BD56B517AD77BD19CE19CE26
:102D380037BD17AC0F6192712C304B108B00AB086C
:102D48004B086B108B106A00F27B5663B118D35096
:102D5800D6A991901070B470B258323972193422D1
:102D680053429472757AF66193227633B3224E01F8
:102D78008C008D104D10CE10EF08CE088E186F38CD
:102D88007058706050602F506E206E188D106D2036
:102D98004E486F586E506D30AD10CC00AC00AD0889
:102DA800AD088C10AD186C10959C5FF7DCEE9ADEC0
:102DB800DDE6316BAB202B104D184D206C188C10B4
:102DC800AC10AC08AC08AC108D204B1875831FF7FD
:102DD8007AE699E678DE99E6FBF6BAE6FBE6DAE605
:102DE800DAE6DBE6DBE63DF7B7CD18D676C559E679
:102DF8005AE6B7CD77C53AD69BDE97BD35AD39C60D
:102E080097B535ADD49C9394728C76AD35AD76BDBF
:102E1800B7C536BD56C597CD72A415BDB7CD56C535
:102E28007BDE39D6FDE61DEFFBCD98C555B555B50A
:102E380036B5F6A3169BB2614C206A00AA00AA0018
:102E480069086A088B086A00B17BF45AB1203561B9
:102E580034993088737814615339B219951216234E
:102E6800B74B3563945A396BB62B1734383C721A02
:102E78004B00AD18CE18AE080F01EF008E084F209A
:102E88004F382F482F482F408E208E188D106D28D0
:102E98004E484F604E584D30AC10CD00CD00AD08B7
:102EA8008C106C108C18AC1898BDDDEEBBEE3DF79D
:102EB800FDEE759CCA206C186D188D108C10AC082E
:102EC800AC08AC088C108C10AD10AC18715A9EE68A
:102ED8005ADEB9E698E6DAEEDBEEFBF61BF7DAE641
:102EE800FBEE1CEFDBE6DBE618D69AE6D7D5D8D59D
:102EF800B7CDD8D576C5F4AC15AD5AD697BD15A5BE
:102F080035AD56AD97B59394D4A477B576B519CEAB
:102F180097C576C597CDB4ACB4B436C5B8CD15B59C
:102F280036B577BDD8C5DCE65CDEF9CD55BD55B5FF
:102F380078BDD69B95822D286C188A00A900A90017
:102F4800690869086A0849008F629452D228566154
:102F5800F48871881479B551F42157239C3C1934AD
:102F6800184CFC845B84F85A551BF72BB733110AAD
:102F7800AC008D106D080F112F010F01CF086E18CE
:102F88004E202E284E284E288E188E106D106D2833
:102F98004E484F602E584D388D10CD00CD088D10FD
:102FA8006C186B186B182D311AD6FDF6BBEEBAEEFD
:102FB800DCEE1BCEAD414B108D108D10AC08AC086B
:102FC800AC088C088C106C10CC08CD180C315AC584
:102FD8009BE6B9E6D9EEDBF69BEEDCF6DAEE78DEB8
:102FE80099E6DBEEDBE6FBE67AE696CDB7D597CD3C
:102FF80097C597C5D8CD15B515AD76B518C656ADD4
:1030080097B555ADD8C5D4A456B5B8C535B556B5D8
:10301800B8CDD8CD35BD52A415BD97CD76C53ADE0D
:10302800D8CD97C53AD67AD698C53ADE19DEB4A473
:1030380079BDD2728D386E306C188A00A90088006C
:10304800680849104A100908706A3452D328565142
:10305800F3705489378AF862941A55131403B30A23
:10306800731AD43A343AB018B0013623983BF2199F
:103078006C006D10EF18CE000E010E01EE08AE10B8
:103088008E188E186D186D208E108D088D106D207D
:103098004E404E584E506D308D10CD08CD088C18CE
:1030A8008C286C304A20AF415BE69BEEDCF69AEE4A
:1030B80059DE3EF757942B106D108D10AC08AC08F4
:1030C8008C086C106C106C18CC00CD186B20D59B3C
:1030D800FDF698DED9EE9AEEBCF6FCF6DBEEB9E624
:1030E800BAE6BBE6DBE65DF735C5D3B459E618DECC
:1030F800D8D5B7CD5ADE7BDE35AD35ADB7BDB7BD5A
:1031080035AD15ADD8C55AD6B8BD36B5F4ACD4A4CE
:10311800B8C519D677C576C5B7CD35BD35BD97C500
:1031280035B576BD3AD65AD6B8CD16BD32A4D5AC8B
:10313800B79C978B10496F386C188A0888008808E4
:103148004810491029180A18778BB349F328B6494B
:10315800F24836825A9BFB7B773B3102AF019001E4
:10316800EE084D08B020502051093001910930096E
:103178008E08AE10CE100E090E01EE00CE08AE106D
:10318800AE10AD108D108D10AD10AD088D088D18D6
:103198004D304D404E406E308D10CD00AD086C2046
:1031A8008D388C402A287162DCF69BEEDCF6DBEE6B
:1031B800BAE61EEF36942A106D106D108C10AC1004
:1031C8008C108C186C186C10AC00CD206C30F2820E
:1031D800FEFE78E6B9E659E65BE69BEEBAE6B9E6A6
:1031E800BAE69AE6BAE6DBE6B7D5B7D5B7D5D4B42A
:1031F80076C57AE6D8CD76BDBBDE39CE56ADB7BD3D
:1032080097BDD4A436B53AD6D8C57294F4A435B5CA
:10321800B7C597C5F4ACF4AC56BD56BD35B55ADE46
:1032280056BDF5ACD8C556B5D8C5B8CD16BDD69CD3
:103238003AA5F14911490C204C18690888008808FA
:10324800690849104A182A28199CD351133195390D
:10325800F12852411141B341F7423633F532AE10ED
:103268006E202E280F283038F018EF0871198D00BD
:103278004C08AE108D002F010E01EE08AE108E1016
:10328800AE10AE10AD108D10AE10AD10AD08AC1074
:103298006C184C284D306D20AD10AD008D082C28D1
:1032A8006D506C5029387483DBF6BBEEBBE6BAE68A
:1032B800FBEEBBDEEC490A086D106D108C188C18FB
:1032C8008C188C188C108C108C08CE28AE40D38AA1
:1032D800BDFE99E678DE7AE65BE69CEEBAE6DAE6CB
:1032E800FBEEFCF6FCF69AE6D4BC56CD55C576CD79
:1032F800F8D519D655B576B597BD19C65ACEF8C5BD
:1033080036B515AD3AD6B8C5F8C556B576B5B7BD14
:103318007ADEF8CDD3A4F4AC96C576C5D8CD5ADEFE
:1033280097C5F9CDB8C5B8C595B5B7C5D9C599A5D7
:103338005774123AB3510C282B1889088800890051
:103348008908690849186A30F472B2513239B529C6
:10335800B42152294E28B1407339D329D652B351DA
:103368007150926091580F484D10AE180F198D0882
:10337800AD10EE100E090E010F01CF108F186F1847
:103388008F10AF10AF108F18AD10AD10CD08CC084E
:10339800AC106C184C206D18AD08AD008D100C28C1
:1033A8002D584C604A4099ACDBEE59DEBADE1BE77B
:1033B800D9DE9AD64A314A104D184D186C186B1838
:1033C8006C188C188C10AC108C10AE30AE48D392A0
:1033D8007CF699E699DEBCEE7CEE9BE6BADEDAE690
:1033E800BAEEBBF6FCF67AE6BBF639E655C5B7D5B4
:1033F80019DE39D639D659D635AD76B597B576B5FD
:1034080076B556BDF9CD7BDEB7BD97B5B7BDF8C566
:1034180018CE7ADE39CE18CED8CD39D67AE676BD32
:1034280097C519D6D8CDD5AC74A555ADD9BDDBA5F2
:10343800F65BFA73F4510D284B208908A80089001F
:103448008900690849186A30715A9051524194218B
:1034580093099321F2409250F3389010B3413A9B6C
:1034680034819378B2704F58AE28B983334A2A080A
:10347800CD188C08ED002E01EE00AF106F206F20E4
:103488006F108F106F106F188D10AD08CC08CC0816
:10349800CC088C106C186D10AD08AD00AD100C3058
:1034A8002D582C606A507CCDDBEEBBE69ADEDADE66
:1034B8001ADF38C6C7186B184D184D184B184B181B
:1034C8004B186C108C10AC088C186D304D489392CA
:1034D8009DFEB9E6FAE6FCEEDEF6BCEEFBEE5CF726
:1034E800DAEE5AE6BBF69AE67AE6B7CD15B597CD89
:1034F80097CDD8CD77BDD8C5F9C5B7B536A577B5B9
:103508005ACED9C55BD67BDE58BDFACDDACD1AD6F0
:10351800F6ACD9C5FACDF9CDD8C53AD63AD698C5BC
:10352800D9CDB8C577C574A416B57BCE3595B895F1
:10353800198D356391514D302B304A186900CA00F6
:10354800890069080818AA40369B5059967A1129AB
:1035580031115219F22891389030F0201121B140E0
:103568007270729070806D60CF6039AB10590C2802
:103578002C18AE10CE00EE00CF086E182D282E386D
:103588002E384E386E284D208E088D08AC08AC08B1
:10359800AD108D108D108C088C08AD086D106D2045
:1035A8008E30AC4089407ADDFCE6DADED8DED9DE42
:1035B8001CE7F38347186A182A182D182D204D2068
:1035C8006C186B106C088D084B108D28AF48127A58
:1035D8009EFEDAEE7AEF1AE71CEFDCEEDBEE1CF764
:1035E800DCEEBCEEBBF6FBFEB3AC56C535BD97C5ED
:1035F80097C597C577BD97BD5AD69BD63AC65BCEB9
:10360800B8BDDDE65BD61ACEBDEEB9C598C5FACD14
:10361800F9CD7CDE9CDE56B5F9CDB8BDB8C5F9CD7F
:1036280098C51AD677C516B557BD57B557ADFAB56B
:10363800F67B3252AE380C280A2049108900CA009D
:10364800690049100710CE61D9BB3069157AF1308D
:10365800F118D110702090386F308F208F204F4094
:103668003178519870906F782D6031716E502D308F
:103678004D188E10CE08CF08AE106E184E304F4839
:103688004F486F406E306E208E10AD10AD08AC08FC
:103698008D106D186D188C108C08AC086C084D18BE
:1036A8004D286B3869383AD5FCEEDAE6FAE698D652
:1036B8003DE7927B060849104B182D184E204D20E7
:1036C8006C186B106C088D088C184D204D301272D8
:1036D800BFFE1BF75AEF5BEF1DEF9BE67AE6FCF6A1
:1036E800DCEEDCEEDCEE3CFF97CD19D6D8CDF8D574
:1036F80019D6F9CD5AD61DEFBBD65ACEF9BD1AC682
:10370800B8BDF9C598C5DDE65BDEF9CDD9C5D8C524
:103718003AD65AD63ACED8C536AD56B598BDD9C5DB
:10372800B8C59BDEF5AC16B5B9C577BD98BD39BD32
:10373800F37A90516D300B184A106A0868008900B6
:1037480049008A184820B69BFACBF0685371B140FB
:103758009120911830209138F1408E206D202E4014
:10376800918051A051980E806F78D0788F580C3086
:103778006E288E108E088E086E102E202F40505006
:1037880050506F486F386E288E108E10AD108C1008
:103798006C184D184D186C108C08CD088D086D10DC
:1037A8004C206B28682819C51DEFDBE61BEFBADE35
:1037B8005FEFCF5A27088A184B182D202D204C2050
:1037C8004B186B108C108E108C106D184D2832729F
:1037D8009EF6FBEE1AE73CEFFCEE9BE67BE61DF758
:1037E8001DF71DEFDCEEFCF69BE697C5D8CDD8CDCE
:1037F80035B577BD3AD63ACEBCDEBCDE9CD677B5B9
:1038080077B5B8BD5BD6DDEEBCE619D67BDE9BDEB0
:1038180019CE7BD6BCDE3ACE97BD3ACE97BDD9C578
:10382800F9CDD8C5B8C557BD16B5DAD5DBDD5BD53A
:10383800F48A6C380B186C184A08AA0869008A10B0
:10384800491049200718548B5BCCF068F26871481E
:10385800512892285028D140F0308D10AD18AF4033
:10386800F2803188309030804F88D1804E580C28B3
:103878008E288E186E088E106E182E282F403058FD
:103888002F582F506F386E306E108D108D106C18A9
:103898004D204D284D204C188C10CD08AD086D10CA
:1038A8004C188B286820F8B43DF7DBE6FBEE3DEFBB
:1038B8009DD66B298910AB204C202D282D282C2033
:1038C8004B186B108C106D10AC08CE20EF38B3720B
:1038D8009EF6DBEEFAEE3CF7FDEEDCEEDCEE1DF7D5
:1038E8001DEF3DF7FCEEBAE635B5B7C519D656BD9E
:1038F80077BDF9CD77B536ADFDE6F9C5DDDE1DE757
:103908007BD65BD67BDEBDE6BBE67AD6BBE6BBE6FE
:103918007AD639CE5AD69BDE9BDED8C57BD6BCDE9E
:1039280019CE1ACEF9CD77BD57BDFAD59BDDDACCC5
:103938008F612B282C186C088B00AA0889086A103C
:103948004A2049200720706A1DC55059F158715006
:103958005140B2407030D038CF202F197442B76A26
:10396800778AB27870789178508890800D482D3099
:103978006E208E18AF188F186F204F304F48505850
:1039880030584F506F386E286E188D186D184C20AF
:103998004D286E304E282C186C10AC08AD088D08D8
:1039A8006D10AC20681896A45DF7BAE6DBEE1EEF42
:1039B800F48348106A106C208E386E404E406D308B
:1039C8006B206B186B104D10AD08CE180E31147BA0
:1039D800DFF6DBEE3BEF5DF7FDF6FDF6DCEEFCEE29
:1039E800DCE61DEF1CE7DBE614AD9BDE9BDE97BD36
:1039F80039D69BDE97BDD8C5DCDED9BDBCDE7BD60B
:103A08007BD6FDE65BD69CE6BBE6B7C5D7C518CE28
:103A18003DEFBBDE59CE7AD61DEF9BD65ACE9BDE44
:103A2800F9C59CDE7CDE3ACEF6AC98C59EEED9BCD4
:103A380009204C188D184B00CC08AB0869082910D0
:103A48004920692848205062DC9C0E39AF509168A3
:103A5800B168B1606F408F30AF187111B63A185B1A
:103A6800776AB1502F505058B19074912D482D203D
:103A78008E188E108F108F106F184F285040705866
:103A880050584F486F386E288E188D186D186D2055
:103A98006E306F404E384D206C10AC08AD088D0864
:103AA8006D10AC204810158C3CEF79DEDCEE1BD68F
:103AB8002A316A184B186D388F506F588F508E40C6
:103AC8008C288B186C186D18CE108D108C2095834F
:103AD8001FF7BBEE1CEF1CEFDCEEBCEEBCEE1CEFE0
:103AE800DCE6FCE6FCE61CE7B7BD97BD76BDB7C5CE
:103AF80097BD7BD6DCE69BD6D8BD9BD6BCDED9BDB0
:103B0800DCDE9CDED9C578BD55B575B555B555B55E
:103B1800BBDE19CE96B5BBDE19CE7BD63ACEF9C53B
:103B2800B8BDBCE678BD98BDF9CD37B51CCE126BD3
:103B380008086C10AD10AD088C088B088A1069183D
:103B4800281849200610505A976B8C28D060B180ED
:103B58009188B1806F586E30F0185109B3099319E4
:103B6800122950305048B158D18094810D300B1033
:103B78008E10AF108E08AF108F106F186F3070480E
:103B88004F484F386E286D188D108D108C184D20A9
:103B98004E306F406F384D286C18AC08AD088D0852
:103BA8006D10AC202710D4831BE779DEDCF675A4F2
:103BB80007108C206D288E406F584F606F608E40C4
:103BC8008C288C188D188F20CF20EE28CC3098ACFC
:103BD8005FFFDCEE1CF7DBEEBCEEBCEEDCEE1DF7A7
:103BE800DBE6FCE6FBE6FBE61DEFBBDE76B5F8C5DB
:103BF80019CE5AD67BD6F9C577AD1EE71AC698B541
:103C080019C6F9CD5BD698C5B6BD34ADD7C518CEA3
:103C180076B518C639CE5AD65AD6FDE65BD67CD6C6
:103C2800FAC51ACE98BD58B5B8C598BDDBBD2A21CE
:103C38008A08AC088D088D088C106B106A10491022
:103C4800070889180708747BD5526D30328190981F
:103C58000F9870888F688F30F010720973011209FD
:103C680071183030504090501169AF480B188E10C1
:103C7800CF10AE00AF08CF08CF108F108F206F3055
:103C88002F382E304E204D108D08AD108C104C184A
:103C98004E306F406F386E304C108C088D088D0890
:103CA8004D108C200710B4831BE779DEDCEE5283BD
:103CB80028106C188E284D404E584F6870606E4022
:103CC8008C208C106D186F184D2050416E497BCD9B
:103CD8003FFFDCEEFBF69AE6DCEEFDF6FCEEDBEEF3
:103CE8009ADEFBEEFCEEDBE69BD6FCE69BD67AD6AC
:103CF800DCE619CE3ACE7BD63ACEDCDED9BDBCDEC8
:103D08005AD6D9C5FDEE1ACEB6C555B5F7C59ADE51
:103D1800F8C5B7C5F9CD7BD6DDE67BD63BCE7CD6DC
:103D28001BCE16ADB9C55BD677BD3BCED89C8910E6
:103D3800AB106C088D106C106C184B106A10691061
:103D4800480868100700B67B14428F38128171A0AA
:103D58000F9890888F588E281009B309730912118B
:103D68007018503012517040925930412C10AD08E3
:103D7800CF10AE08CF08EF08EF08AE086E186F280E
:103D88004E304E284E186D10AD08AD088C106C18CA
:103D98004D284E304F386E308D206C088D088E10AF
:103DA8006D186C200818D1725BEF99DEDCEE6E5A44
:103DB8002908AD184D184D300D480E502F486E305B
:103DC8008D18AD108E186F184E38CE40106A1CE64C
:103DD8003EFFFCF69AE6FCEEFCF63DF73DF7FBEEFF
:103DE800BAE69AE6DAE6FBEE76B5D8BDFCE65EF70B
:103DF8005AD639CE7BD67BD67BD6FDE6BCDEDCDE5A
:103E0800D8C53AD65AD6B8C5F7CD59D634AD96BD29
:103E180018CED8C5DCE6FDE65FF7DDE63FF7DDE660
:103E28001ACED9C5B9C53BD6F9C5DEE6117329182E
:103E38002B204D206D202C188D206B182908691017
:103E4800480888084900CF315121B0381379518882
:103E58007188B0706E3810195001D20971098F0835
:103E6800D130D13852413552176BF2394C008D0898
:103E7800CF10CF08CF08AE00CF08AE088E186E2836
:103E88004E284E206E186D10AC00AC008C086C10DB
:103E98002D202E282E284D288D188C088C106D105A
:103EA8006D206C2828200E5A1BE7DAE6FDEE2D4A15
:103EB8008A108D10AD184C202D380E402E386E20EB
:103EC8008D10AD088E104F182E48CE50F28A7CEE19
:103ED800DCF6DBEEDBF6FCF6BBE6DBE6DBE6DAE699
:103EE800DAEEDAEEBAEE9AE619C639CE7AD67AD68C
:103EF80019CEF9C55EEF7ACEBBD61DE73ACE39CEDC
:103F08003ACE7BD63AD6F9CD58D6F7CD18CE75B578
:103F1800F4AC3DF7BBE6DCE6FDE65FF7DDE67BD615
:103F28009CDEDDE6D9C55BD65AD69EE64C510930F3
:103F38000C406E482D384D286C188C186A0889106A
:103F480068088908AA082D1951191139346992701D
:103F5800B270B1488F189111B10170010E09EF28A4
:103F6800F0408E28754AD9537753D1294C008E10CA
:103F7800AF18AF10EF10CF08AE088F106F204E2883
:103F88004E284E206E186D10AC00AC00AC088C109A
:103F98004D182E202E204D208C188C108C104C1073
:103FA8006D206C2849200B39BADE3CEF5FF72D42B3
:103FB8008A08ED104C08AD206D284D304E206E104B
:103FC800AD08AD088E104F180E50CD5836B41EFFF0
:103FD800DBF69AEEBBEE79E679DE79DE99DE9AE6D3
:103FE800DAEEDAEE9AE659E6B7BDDBDE39CE39CE3F
:103FF8005EF75AD65AD619C6BCDE7ACEBBD65ACE8A
:1040080019C6F8C59BDE19CEF6C558D6F7C5DBE646
:1040180096BDBBDE5EF77AD697BD5EF79BD69BD67C
:104028005ACEDCE6DCDE5ACE7BDEF8BC8B500B5871
:104038004F706F682D486D306C186B108A106910BE
:1040480089108908AB08D02171198F207148305028
:104058000F387028D01051092F01ED00D041589326
:1040680079A3B56A3643761B353B6F112B006E1862
:104078004E104E10AF08AF106E108F206F302E30DC
:104088002E304E284E184D10AC08AC08AC088C08E1
:104098006D104E184E186D186C108C108C104C1832
:1040A8006D284C286A284820B7BD7FF73FEF8F4A14
:1040B8008A008C08AD108C188C286D206E188E081C
:1040C800CE00CE088E106E184F580E6118CDFCFE2B
:1040D8009AE67AE6DBF69AEEDAE6DAE6DAE6DAE69F
:1040E800BAEEBAEEBAEE9AE659CE59CEDCDE5EEFFB
:1040F800DCDEDCE63ACEFCE6F8C5D8BDDCDED7BDB2
:10410800D8C539CEF8CD19CE37CE78D638CE99DE87
:10411800BADE38CEDBE6FCE67AD639CE9BD67EF719
:10412800D8BD39CEDCDE7ACEBCE652934A582D781B
:1041380050882F786E588E38AD206B086A08891021
:1041480089106908CC08B12110296F30915851584D
:104158000F38B128F118CF0850197452DAA3BAC32E
:10416800BAD33BAC3533F60B384C111A6C088E2099
:104178006E208F18AF108F106E1890384F400F4078
:104188002E384E284E184D188C108C088C088C0828
:104198006D104E104D186D108C10AC088C104C180A
:1041A8006D282B2069200610949C5FF7DFDECD3147
:1041B8006B086C10AD204B206C286D208E10AF085A
:1041C800EE00EE08AE108E102F502E6199D5FBEE42
:1041D800FBEEDBEEFCF6FCF6FBF6FBEEFBEEDBEEB5
:1041E800BAEEB9EEBAEEDBEE39C69AD6BBDE7AD6AF
:1041F80019CE7AD6D8BD5AD619C676B539C639CEAB
:10420800B7BD39CE39D619CE98D6FADE98D674AD60
:10421800D6BD79CE79CE59CEFCDE728C18C659CE71
:104228008E730F7C928C149D9CE68F822A588F88FF
:104238002F882F70AF608D308C186B084908AA2022
:10424800491049086F2130116E30B160917851687A
:104258005048123932291119386BBA939ABBF8D2DF
:10426800F9DA7AABD42A3704383CF0112C004D2007
:104278004E208E188E086E106F28704830580F50D8
:104288002F404F304E186E186C186C106C108C083C
:104298006D086E106D108D10AC08AB088B106C108B
:1042A8006C202A18692006085073BFFF979468107D
:1042B8008C186D282C288D404C304D286E18AF086E
:1042C800EE08ED08CD10AD100D408F59FAD51BE75B
:1042D8005BF71CF7DCF6DBF6FBF6FBEEDBE6DBEE6A
:1042E800DAEEDAEEDBEEDCE67AD6BBDE5AD6D8C5F5
:1042F800B7BDF8C59BD6F8C59AD69BD639C69BDEFE
:104308007AD6B7BDF8C57ADE57C698CEB8D6B5B551
:1043180053A558CE17C695ADDBDE79C6B6B5308441
:10432800D29454A5CE73708C58C52E7A6B608F8842
:104338000E804F708E506C306B108B106A10AA2054
:104348002810AB18B1295111F168128950900F78D3
:104358006F583141B339154A565AF8821592D1A08F
:104368000F905279F53A9403B623CF014C086E2882
:104378004E208F18AF10CF184F30505010600F5884
:1043880050506F306E188E186C206C208C108D1069
:104398008D106E106D108D08AC08CB08AC086C1031
:1043A8004C184A1869182608AB417ED64A292810A5
:1043B8008C280C306E508E586D486D384E208E10FB
:1043C800CE08ED08CD08CD102E4010625BD6D9D6A8
:1043D800FADEFCEEFDFEFCFE1CFF1CF7FCEEFBEE1D
:1043E800FBEEDAEEFBEEFCEE18C619C65AD67AD604
:1043F800F8C53AD69BDEDCE6DBDE9AD659CE39CE56
:104408009BDEF8C576BDD8C5D4B573AD16BE3BE7FF
:10441800B9D654A5F6BDD6B534A5D6B5B6B595ADBD
:1044280095A5339DD5B594A5129CAC69CD704F78F0
:104438000E78B0700C406C286B106B106A10281046
:1044480049182E297129B2215391D2A00F98909022
:104458008F608D308E18F020D341AF382E58509091
:104468001098F170D53A580CF623F0096C084E20D4
:104478004E208F18AE08AF184F3050581068106093
:1044880070508F386E18AF184D286C208C18AD10EE
:104498008E106E106D088C08AB08EC08AC086C1018
:1044A8004B106A1868102600C8284E5247108A20F8
:1044B8000B204E486F606E68AF606E484E206E10DD
:1044C800CD08ED08CC08AC080E38516ADCDE1ADFDE
:1044D800F9DEFCEEFDFEBCFEFBF6FCF6FCEEDBEEC8
:1044E800BAE699E6BAE6FCE6BBD619C6BBDEBBDE81
:1044F80039CE19CE39CE9BDED8C5F8C5DCDEF8C575
:1045080039CE19C6D49C56ADB9DED9DE5AE734BEC9
:1045180012AED0A52A74EF8C98C6139D98CE96C675
:10452800B19D8C6C483B8E64DAC4CF61ED506D5000
:104538004E50B0408E18ED08AB00AA104808480845
:10454800AA108F31AE203141F1887088728892703C
:104558009240B1281321B11090102F285168539818
:104568001188F160D129141B385C8F192C088F2809
:104578004F207018B018AF188E286F502F680F7022
:10458800306850487020D0108F204E184D106D188C
:104598006D202C202C204C186C10AC088C086B0853
:1045A8008B108A106908680847008908AA104B1000
:1045B8004C206E484E680E782E786E604D384C1838
:1045C800AD10AD108D10AD1869283283DEEE1DF7E1
:1045D800FBEEFAE63CF7DBE61CEFFCEEFBEEFBF647
:1045E800FBEEDBEEDBEEFCEE7EF71DE7DCDE39CE24
:1045F800B7BDB7BDB7BDF8CDF8C5D8C55AD67AD6B8
:1046080039CED8C5B7BD19C61BEF5CEF19DFF3ADBE
:10461800CC84EC84D0A5CA6B329D38BE3BDF97BEF4
:104628000B642743AD6C6943D6936D518B402C487E
:104638004E508F408E10ED00EB00AA10691008084C
:104648008A100E296E203249B068B17091700F48F7
:104658007030B118B4295211F0084E189158518091
:1046680071788F482F19721A8E110D118D108F20A5
:1046780090209018B0108F108E288F486F602F6888
:10468800506070407020B0108F206E186D188E200A
:104698008D286D284C204C206C10AC088C086B08B9
:1046A8006A106A1068086808470089088A106B1041
:1046B8004C206E404E604E782E704E604D384C182F
:1046C800AD10AD106D088D102B41D8B43FFFBBE67F
:1046D800FAE6FAEEFBEEFBEEDBEEDBEEDBEE1BF7CB
:1046E8001BF71CF71CF73DF718C6F8C539CE7AD664
:1046F80039CEF8C5B7BDB7BD35ADB7BDD8BD7AD6CB
:104708007AD619CE97BDD7BDF7C5DADE5AE7D6CE29
:10471800CFA52C8D8A7CD2A51195DAD6F6B515AE23
:104728002F8DAC742A5C4B5C947B6D498C402D506A
:104738008F588F38AE10ED00AB006A0829184A2050
:104748006F3950316E28F248936912599048703881
:10475800944132219211130AB41A70191149D1687F
:104768005371F3619131DD8CB76BED18EE186D085C
:10477800AF103219AF00CF108F20AF386F504F589D
:1047880050504F386F20B0108F188E188E188E200A
:10479800AE28AE306D286C206C10AC108C086B08FD
:1047A8006A10691048084708680089088A106B1061
:1047B8004C204D386E586F704E704E584D386D18ED
:1047C800AD108D086D10AE202B419BCD3FFFBBE691
:1047D800FBEEFAE6BADEBAE69AE69AE6BAE6DAE670
:1047E800DBEEFBEEFCEE1CEFBBDEFCE6BBDE7AD6B6
:1047F80019C67AD6BBDE5ACED8C5D8BDB7BD19C63C
:1048080019CEF9CDB7BD19CEF7C55CEF5AE7F6CE8C
:1048180052B60FA68E9595BED8CEB9CEF18C929D84
:10482800F2A52A64095C6F85156C4C314C402E58F2
:1048380090586F388D10CD00CC004A1009208C3864
:10484800F2519139AF281241D35111414E200D1028
:104858007231553AF211F0011413363B37737A9BD3
:10486800146A9251B2491CA4577B6C105029D64A3D
:10487800F742D3195109EF088F108F286F386F3816
:104888006F386F286F188F188F188E188E108E1823
:10489800AE28AE308D304C206C108C108B086A0816
:1048A8006A10481048084708880889088A086B1061
:1048B8004C184D306D486E608F606E504D308D18BD
:1048C800AE108D108D20CF382A419ACDFEF61CEF00
:1048D800FBEEDAE6BADEBAE6DBE6DBE6BAE6BAE62D
:1048E800BAE6DBEEFCEEFCEEDCE67AD67AD6FCE63F
:1048F8007AD65ACEBBD6DCDE19CE76B55AD63DF777
:104908009BDEB7C5D8CDD8C596BD57CEB8CED6CEC6
:10491800F5CEAF9DD09D509518CFD5AD4E7413AE42
:10492800B09D4E850D7DD5B6766CCB284C506F6802
:10493800B1686F406D18AD086B084B180A303059D4
:10494800545AF2297221B439F02873415239312965
:10495800B329F742194C39345834F7433A7C3B9C15
:104968001CA4B67A8F487379F3610B189131FA63F6
:10497800D94BF209B1015109D010AF188F208F20FF
:104988008F208F188F188E10AE10AE108E108D18C5
:10499800AE20AE306D304C204B108B106A086A0880
:1049A800691048104708470889088A088B088C103E
:1049B8006C184C204C306D488E506D404D288D1829
:1049C800AE108D188E38CF50ED591CDEDDEEFCEEA2
:1049D800DAE6DAE6DAE6FBE6BBE6BBE69AE69AE66C
:1049E8009AE6BAE6DBE6DBE6F8C57AD65AD67AD690
:1049F8009BD6BBDE7AD6FCDE5ACE39CE5ACEDCE662
:104A08009BDEB7C55ADEB8CD37CE57CE5AE779E721
:104A180058D753AE12A617CF75B6729D919D94BE06
:104A280072AEED844F8D58CF9774AB306E68918815
:104A3800B27890486E288D184A100B284D481059A6
:104A4800B131B10950011009F020565A113193398A
:104A5800BA5B1633762B5834993C384C9763B98334
:104A68001783157212719178199B2C282F2157439F
:104A7800F522F101D20192093111D010B010AF1016
:104A8800AF10AF10AF108E10AE10AE10AE108D106C
:104A98008D208D284C282B184B106B086A08690844
:104AA800691048104708670889088A088B088C101D
:104AB8008C106C186C206C286D384D304D208E1879
:104AC8008E186D284E486F68F07ADEF6BDEE9ADED5
:104AD800BAE6DAE6BADE1CEFDBE6DBE6FBEEFCEE76
:104AE800FBEEDBE6DBE6DBE619CE15AD39CE5DEF96
:104AF800F8C59BD61CE79BD69AD65EEF7AD619CE18
:104B0800BBE67BDE7BE619D6F6CDF9E6F9DE19DFE2
:104B180097C618CF39CF96BE13AE909DAC7CD4C63D
:104B280072B6ED8414AE96BEB5738C5070885190F1
:104B380091704F404D286C182A180B30316910516C
:104B48007021B41AB5127522D75AF87AB872597307
:104B5800784B351BD723910275233954F96BB5620D
:104B6800146A568A91689288F5812D28AD18B84B39
:104B7800D41AD101330A51013211D110D010D010FA
:104B8800CF08CF08CE10AE10CE08CE08CE08AE1093
:104B98008D186D202C202B184A106A0869084908BE
:104BA80068104810470887088A088B088B088C10FB
:104BB8008C108C108C108C186C204C204D188E107A
:104BC8006D184D304E584F78349CFEF69CE67BDECF
:104BD8009ADEBAE6BAE6DBE6DBE6DBE6FCEE1CEFDD
:104BE800FBEEBAE69ADEBADEFCE69BDE9BDE9BD6DF
:104BF800F8C59BD67ACEBBD6BBD65DEFDCE65AD6D7
:104C08009BDEDCEE5ADE3ADE97DEB8DEF6C5DADE8B
:104C1800BDEF7CDF7BDFD8C60F8DD1A530AEB2BE2D
:104C2800F4C6B1A556BE98C6B3828E7871A83198DD
:104C380091684E30AD208C182A184C38B79A7259A2
:104C48004F19F51A161BB62A3873B782B88AD77265
:104C5800742A7623961BB302F1013222175BD772AE
:104C68001993F68950689288F1600C288D10732A80
:104C7800F101F101910192111211D110D110F1102D
:104C8800CF08CF08CF10CE10EE08EE08EE08CE10F1
:104C98008D184D202C204C204A106A086908690894
:104CA80068104708470887088A088B088B088C1003
:104CB8008C108C108C108C108C186D186D188E1030
:104CC8006D186D306E606F8078C5BDEE7BDEDCEEF2
:104CD8007ADE9ADEFBE6DBE6FCEEFCEE1CEF3DF747
:104CE8001CEFDBE6BBE6FBE63EF7FCE63DEFDCDE71
:104CF800F8BD9AD6DCDEFCDEBBD67AD6DCDEBBE6B7
:104D0800DCE6BCE619D63ADE99DE58D678D699D6CE
:104D18001CDF5CDFDACE77BE35B673B6D3C614CFE8
:104D2800B3C634B6D4ADFAD632926E9010A892A01B
:104D38009050AE20CD108B100A18CE5059B3926106
:104D4800133AD5221633F752D6829692738131518F
:104D5800B54A362B972B7312B1091019534195692F
:104D6800136971687178928831610B20AE18B11996
:104D78006F01B101B2093109F210B118B118B118B7
:104D8800AF10AF08CE08CE08EE08EE08CE08CE1059
:104D98008E184D204C204C184B106A086908690879
:104DA800480827086708A8088B108B088C106C1017
:104DB8008D204B186C188C186C108E186D108E1076
:104DC8006D106D286D503191FAD59CE67BDE7BDE47
:104DD8009BE69ADEDBE6BBE6DBE6DBE6FCEEDCEE3A
:104DE800DBE6DBE6DBE6DBE65EEFBBDEFCE6DCDE35
:104DF800DCDEBBD67ACEBBD6BBD6DBDEBBDEDCE6E2
:104E080039D6DCEE7BE6F9D5F7CD38D699DE79D6FA
:104E180038C61CDF7DE7B9C614AE12AED0A532B6CF
:104E2800B5C6F3AD56BEB5AD32A28F9850A8B288BC
:104E38008F38CD08EC00AB102A20EF5897A2D47118
:104E4800344A1643175BF872959AF8C256BAD8AA2C
:104E5800BA93575B784BB532F0106F2092503158A7
:104E68003160106051789390F0500B18EF2870194A
:104E78000F0171095109F008B118712071287028C3
:104E88006F20AF10CE08EE08EE08EE08EE08CE0848
:104E98008E186E204D204C186B108A088A088908D5
:104EA800480827006808A9086B106B108C106C2044
:104EB8008E384C384C284C206C188E186E10AE0862
:104EC800AD08AC18AC4053927BE67BE67BE67BDE14
:104ED8009BDE9BDEBBE6FBE6DBE6DBE6DBE6BCE671
:104EE8009BE6BBE6DBE6FBE6FCE6DCDE1CE79AD6E7
:104EF800BBDEBBD6BBD6DBDED8BD9BD6DBDE9BDEFE
:104F0800F9CD3AD6BBE639D677BDB7C596BD95B5C6
:104F1800FBDE38C67DE7FAD6B8C6B6C691A5F2ADAF
:104F280096C693A536BED5B5B4AA10997090B1703F
:104F38008E182E010D018B100A283071F5995792A1
:104F4800F459554A9562B78A55AAB7CA93B177BA40
:104F58007AB31883596B964A3231514052681270AD
:104F680011681060517815A131490B1830311021A2
:104F7800EF0831091009B01091207130714050408C
:104F88004F308F18CE08EF00EE08EE08CE08AE10AE
:104F98008E186E204D206D186C108B088A088908B1
:104FA800480828006808C9106B106B086C106C283A
:104FB8008E484D502C402B304C206D186E10AE0092
:104FC800CD00CC08CB28B7A31DF7BBEEDCEEBCE6C2
:104FD8009CE6BCE6BBDEFCE6DBE6BBE6BBE6BBE686
:104FE8009BDEBBE6FBE61BEF1CE71CE75EEF9AD6F1
:104FF80039CEDCDE3DEFDBDE5ACEDCDE9BD639CEA9
:105008007BDE3AD65AD639D67CDED8C5B6BD58CE60
:10501800B9D695B538BEB9CED9CE56BE55BEB7C6E7
:1050280056BEF5B556BEF4B596A3B1898F70D15862
:10503800AE106F01ED002A186D50B499B5A1D9AA28
:105048007772F772F782D79AD6C2F8DAB3B915BA77
:10505800F8BA189B9A8BD762944951483370748078
:10506800526830505060B6A171490C10CF28D0203A
:10507800F010F010D110B018913091487258515872
:1050880050406F288F10CF08CE08CE08AE088E107B
:105098006E186E204E206D186C108B08AB088A08AD
:1050A800690828086908CA106C186B086C104C2825
:1050B8006E582E682D582C402C204D188E10AE0896
:1050C800ED00CB002B211AB51CF7BBEEDCEEDDEEB4
:1050D800BCE6DCE6BBE6BBE6DBE6BBE6BBE6BCE67D
:1050E8009BE6BBE6FBEE1BEF9EF73DEF3DE71DE7BA
:1050F800DCDE5DEF1DE79BD65ACEFCE67AD67AD683
:1051080019C639CEF8C5BBDE1BCE3ACEDADE98D644
:1051180078CED6BDF39C38BE16B6F5B555BE97C643
:1051280019D73ADF77C636BEF693327ACF60F148A0
:10513800CF104F09AC000B20F07894A93391379227
:1051480056729672F782B69259D37AE3B7D296C25C
:1051580059C3189B588BB662D451D258D478B478B6
:1051680051584F38B148B57930310C108E18AF18F6
:10517800D0189008D1189018703091507268516802
:10518800715890388F18D008AE10AE10AE108E102F
:105198006F184E204E206D186C108B08AB08AA08AB
:1051A8006A0849086A08AB104C186B088C104C2820
:1051B8006E602E702E706D504D284D188E18AE08EA
:1051C800ED08CB08CD391DD69AE69AE69BE6BDEEEA
:1051D800BDE6BDE6FCEE9ADEDBE6BBE6BBE6BCEE72
:1051E800BBE6BBE6DAE6DAE69EF79FF71DE73DE7A2
:1051F8007EF79FF7FCE6BBDE7AD67AD639CE59CE53
:1052080039CEBBDE7AD659CE3BC6B7BD17BED5BDA3
:10521800B5B5F7BD9ACE58BE7CE735B6B6C639D710
:105228003AD7D9CE36B61295D57B73721059D0407D
:10523800AF18EF086C084D38D5A154A9F388F6814A
:10524800567214629472579BF8C25ADB39DB18C342
:1052580099BBF68A588B58835572178AF799B37099
:1052680091508F3011397241AD184C108E1890182A
:10527800B0109010D120702070389160517051702A
:10528800716871489020B010AE188E108F108F186A
:105298006F184F204F206E206C108B08AB08AB1096
:1052A8008A104A106A108B104B106C08AC106C28CE
:1052B8006E602E784E706E508D286D188E186E1098
:1052C800AD10AA10B0629FEE9AE6DBEEBCE6DDEE0A
:1052D800DDEEDDE61DEFDBE6DBEE9BE69BE6BCE6FE
:1052E800BBE69AE699E699DE5DEFBFF75DEF1DE74D
:1052F8007EEF9FF73DEFDCE6DCDEFCE6BBDE9AD610
:105308009BD67ACEBBD639CED9BD7ACE33A516BEBA
:1053180079CE7ACE7BCE79C619D714B675BE39D771
:1053280039D798C674A5D18CB57BD47A7261904070
:105338009020AE086D10CF4815A233995489D579BD
:10534800B87AD672F67AD9A35AD398CA72A914A28F
:1053580098AB76937793B582D7925BB3F7999168B8
:1053680091508F28F020D331AD184D10AF18B018D8
:105378009010B110B1187020704091685078107872
:1053880051707150502870188E188E188F186F1819
:105398006F204F284F286E206C106C088B088B10DC
:1053A8006B104B104B106B104B108B08AC086B201C
:1053B8006D580D782D708E508D286D108E184D10EB
:1053C8008C188A20948BBFFEDAEEFCF6FDEEDEEE3A
:1053D800DEEEDDE6FDEEFCEEFBEE9BE69BE6BCEECC
:1053E800BBEEBBE6B9E699DE9EEF7EEF7EEF5DEFA2
:1053F8007EF77EF77EF7DBDE1DEF7EF719C65ACE05
:10540800BBD69BD69ACE9BD65AC6DAD616BE53A51D
:1054180038C6D8B5B8B55DDFD8CE13AE74B6B6BE4B
:10542800F5AD1AD7D6AD13951684568BB371704067
:1054380070288E086D10EF48739117AAFAB2367A61
:10544800B772998B989319A45BDB5BEBF5B996B2AD
:1054580077A3358B979BF69A39B3BCCBF27850601B
:105468004F48B0300F1937530F214C088E18B01819
:105478009110B118701070289048916830780F78A2
:1054880051707150503090188E188E186E186F1811
:105498004F204F284F286E206D108C088B088B10DA
:1054A8006B104B104B106B104C188B08AB004B1843
:1054B8004C500D704D708E508D206D108E186E18DA
:1054C8008D208B2837B4DFFEDAEEDBEEFDEEDDEE65
:1054D800DEEEDDE69BDE1CEFFCEE9BE67BE6BCEE3B
:1054E800BCEEDBEEDAEED9E67EF77EF77EF77EEFEE
:1054F8007EEF7EF77EF77EEF7EEF5EEF1DE73DEFF6
:105508005ACEBBDE39CE39CEF6BDBAD655A51495DE
:10551800D6AD9ACE77ADDEE6F9C537C696C655BE86
:1055280097C6FAD658C6F6BDB58B57ABD491D1609D
:105538004F208F186F2812615269F77A196C174437
:10554800B623F733D73B5A64DAB37ABBB8B219AB90
:10555800998B975BD74BF85B1B84B98A936874580F
:105568007128321950097432EF282D10AF18AF1076
:10557800D008F008D008901871387160327812801D
:105588003170515050306F188F188F186F104F1896
:105598004F206F288F208E186D104C184C204B18F8
:1055A8006B108B106B104B10CB00AB08AB106C184A
:1055B8004D204E306F488E484D304E188F186E185B
:1055C8008C302B49BAD51EF79AEEBBEE9BEEBBEE9C
:1055D800BBEE1DF7DCEE9BE6BCE6DCE6DCE6BBE6F4
:1055E800BBE6BBE6BBE69ADEBFFF9EF75EF75EEF63
:1055F8007EF77EF77EF77EF79EF7FCE63DEFFCE64A
:10560800BBDE7AD67AD619C674ADF7BD35A595A591
:1056180074A5D7B53ACEBDDE3ACEB6B5F8D6D7CE54
:10562800F9D67CE73BDF94ADB69B57BBD4A1337169
:105638009030AF204E2873691582588B1553963BCE
:10564800B6231834D743395CD9A379AB979AB78A6C
:10565800576B553B952B963BB442B0303140724066
:10566800B220521190093222EF204D08CF18CF10E6
:10567800F0081009F008B01890309150516851683E
:10568800516071489028B0188F188F188F106F18B4
:105698006F206F206E208E186D104C184C184C1807
:1056A8006B108B108C104B10AB008B088B106C1888
:1056B8004D202E284D384D382C286E188F186E180E
:1056C8008C30EE613CE6DDEEFCF6FCF6FCF6DCEE3A
:1056D800DCEEFCEEFDEE1DEFDCEEDCE6BBE69BDE71
:1056E8009ADEBBE6DBE6FCEEBCE61DEF7FFFBFFF04
:1056F8009FFF5EF75EF77EF79FF73DEF7EF77EF739
:105708007EF79BDED8BD55AD14ADB39C55ADB6B58F
:10571800708454A57AD6BDE6DDE618C6B8CE77C63D
:10572800B9CE58C6F7BD12A5D7AB99CB94A9F280CC
:105738004F308F18D030199B19A3BA9B77639633D3
:10574800172C172C183C3A5C199CBAABD7921773D4
:10575800D853F62B3624173C942A6E0870207120F3
:10576800D1105001F1091112EE106D08EF1010114F
:1057780010093109F008D010902090385048505046
:10578800704890309018AF108F18AF10AF108F1866
:105798006F206F208F188E108D106C184C186C1895
:1057A8008C108C088C106B10AC008B088B108C182C
:1057B8004D184E204D282C284C208E188E108E20E7
:1057C8008B30128BBDF6BCE69BE69BE6BBEEBBE6D8
:1057D800DBE6DBE6FCEE1DEF1DEF1DF71DEFFCEE33
:1057E800FCEEFCEEFCEEFCEE57BDB8CD3AD69CE6DE
:1057F8001DF75FFF7FFF7EF75EF77FF75EF73DEFF0
:105808007EF7BCDEB8BDB8BDD3A415AD14A5139DF5
:105818004F8432A576BDBCE67CDEF8C558CED9D615
:10582800DACE38C6B6B574B538BCB9DB12A1D178B2
:105838006F386E107139FBA3BAABB9937A7CD63343
:10584800782C782C38345A54D98B999BB6821763A4
:10585800F73B3714771C3834731A0F09D010B0107F
:10586800F1083001D109AF01CD088D00EF0810090A
:1058780030093109F000CF088F106F204F304F30BA
:105888006F286F188F08CF08AF10AF10CF10AF1068
:105898008F189020AF18AE10AE108D106C106C10D1
:1058A8008C088C088B106B108D086C086C108D1888
:1058B8006D186E186D206C186C10AE108E10AE2816
:1058C8008B3836ACBDF6BCE6DCE6DCE6DCEEBBE6E7
:1058D800FCEEFCEE1DEFFCEEFCEEFCEEFCEEFCEE4E
:1058E800FCEEFBEEDBE6BBE6BCEEBCEE5BE6D9D538
:1058F800D8CD3AD6BCE6FCEE5EF77FFFDFFF3EF779
:105908005EF7BBDE3AD619CE15B576BD14A512A53D
:105918006F8C8F9454B556BD5BDE1DEF99D678CE4B
:10592800DAD617C654ADD6BD18BC99D3F1983389C9
:1059380031498D107031D6721BACD98B7A7C3844C2
:1059480057241A3599345944F98B999BD78A576B40
:10595800183C7714981C3834D1013001D000B008B5
:10596800F00830092F098F11AD00AD00EF08301194
:1059780030093009F008CF08AF108F188F206F203A
:105988008F188F10AF08F008CF10F010EF08CF1065
:105998009018B020B018CF10CF10AE108D108C100A
:1059A800AC08AC088B106C188D084C104C186D188E
:1059B8006D186E188D188C10AD08CE08AE10AD207D
:1059C8000B417AD59CF6BBEEDCE6DCE6DCE67BDE5A
:1059D800DCE6FCEE3CEFFBE6BADEBADE9ADE9ADEE7
:1059E800BBE6DBE6DBE6BBE6D9D59CEE1EFFDDF6C3
:1059F8003ADEF9D5F9CDF9CD3AD619CEFCEE7FFFCE
:105A08003EF77EFF1DEF39D615B597C555B5D29C23
:105A1800F09C4E8CB1A4729CD5AC76BD59CEFADE02
:105A280078C674AD74B554ADF7B378C352A19491E8
:105A380031518D18B13933621AACF993397C374436
:105A4800572CB92CBA441844B89358A3D792587312
:105A5800F83B581C781C9623B1011001F008AF08D8
:105A6800AF10EF10CE084F196D08AE08EF101011E7
:105A780010111011D008CF08AF10AF188F188F1859
:105A8800AF10AF10CF081011101110091009CF086E
:105A9800AF109018AF18AF10CF10AE10AE10CD08E1
:105AA800CC08AC088B106B186D104C104D206E2074
:105AB8006E206E188D10AC08CD000E09CE106B1834
:105AC800EE591CEE5BEE7BE67BDE9BDEBCE69BDEE6
